:020000040800F2
:10000000B80700209D010008171D00085D120008B8
:10001000151D0008270800086D2F000800000000CB
:10002000000000000000000000000000752400082F
:10003000F50E000800000000CD1E0008752A00081B
:10004000B7010008B7010008B7010008B7010008B0
:10005000B7010008B70100082D0F0008610F000864
:100060007D0F0008B7010008950F0008B7010008D0
:10007000B7010008B7010008B7010008B701000880
:10008000B7010008B7010008B7010008B701000870
:10009000FD2E0008B7010008B7010008AD0F0008E9
:1000A000B7010008B7010008B7010008B701000850
:1000B0009D2B0008B7010008B7010008B701000830
:1000C000B7010008B7010008B7010008B701000830
:1000D000B7010008B7010008B7010008B701000820
:1000E000450F0008B7010008EB2D0008B701000814
:1000F000B7010008B7010008B7010008B701000800
:10010000000000000000000000000000B70100082F
:10011000B7010008B7010008B7010008B7010008DF
:10012000B7010008B7010008B7010008B7010008CF
:10013000B7010008B701000800000000000000003F
:10014000B7010008B7010008B7010008000000006F
:10015000000000000000000000000000000000009F
:100160000000000000000000B7010008B70100080F
:10017000B7010008000000000000000000000000BF
:1001800000000000B7010008DFF80CD000F0DAFA38
:100190000048004725440008B8070020064880476B
:1001A00006480047FEE7FEE7FEE7FEE7FEE7FEE75C
:1001B000FEE7FEE7FEE7FEE7CD2A0008890100081A
:1001C00040EA01039B0703D009E008C9121F08C0D9
:1001D000042AFAD203E011F8013B00F8013B521E59
:1001E000F9D27047D2B201E000F8012B491EFBD2D0
:1001F00070470022F6E710B504460846114602464D
:100200002046FFF7EFFF204610BD2DE9FE4F81EAA3
:10021000030421F0004504F0004423F000414FF0B6
:10022000000A009450EA050302D052EA010304D107
:100230000020014603B0BDE8F08FC1F30A53C5F3B7
:100240000A541C44A0FB02B3C5F3130545F4801CFB
:10025000C1F3130141F480180CFB023300FB083E8C
:10026000A4F2F334810A930A41EA8C5143EA885399
:100270000194A1FB03474FEA9C2505FB03734FEA5A
:10028000982601FB06373D05260545EA1435BBEBEC
:1002900006016EEB0503850E920E45EA8C1542EAC7
:1002A0008812A5FB0206261E67EB00070C0D44EA28
:1002B0000334A41947EB1350C1F313064FF00003A6
:1002C00019464FEA033343EA165343EA0403019CF9
:1002D000E5FB0201A4F10C040294009C4FEA0632F3
:1002E000CDE900A400F0E5F8A4E72DE9F04D81EA9E
:1002F000030404F0004B21F0004714464FF0000ABD
:1003000023F0004150EA070220D054EA01021DD038
:10031000C1F30A550246C1F31300C7F30A56C7F3E7
:10032000130340F4801143F48013A6EB0508101B5F
:10033000D64608F2FD3873EB010002D308F101083C
:1003400001E092185B41B8F1000F03DA002001468A
:10035000BDE8F08D00204FF48015064607460EE0FC
:10036000B2EB040C73EB010C04D3121B064363EBDA
:1003700001032F436D084FEA300092185B4150EAA9
:10038000050CEDD152EA030012D082EA040083EAA0
:100390000105284303D100224FF0004308E0101B61
:1003A0008B4102D20122002302E06FF001025310C0
:1003B0001AEB060047EB085110EB0A0041EB0B016A
:1003C000BDE8F04D00F068B800F0004230F00040A9
:1003D0000DD0C10D01F5607142EA01510022C0F358
:1003E0001600520742EAD00240071143704700202E
:1003F0000146704701F0004230B421F0004150EA5C
:10040000010306D00B0DA3F56073C1F31301002B9C
:1004100002DC30BC00207047440F44EAC104C10034
:10042000A01830BC00EBC350AFF300800029A8BF78
:100430007047401C490008BF20F00100704710B40D
:10044000B0FA80FC00FA0CF050EA010404BF10BCC2
:10045000704749B1CCF1200421FA04F411FA0CF1EF
:1004600018BF012121430843A3EB0C01CB1D01065A
:10047000000A002BBEBF002010BC704700EBC35029
:1004800010440029A4BF10BC7047401C490008BF9D
:1004900020F0010010BC704710B5002B08DA401C9A
:1004A00041F1000192185B411A4301D120F0010093
:1004B00010BD2DE9F04D92469B4611B1B1FA81F283
:1004C00002E0B0FA80F22032904600F04DF9064684
:1004D0000F4640EA0A0041EA0B0152465B460843D8
:1004E00003D130463946BDE8F08D194652EA010085
:1004F00015D0C8F14002504600F045F904460D46BB
:1005000050465946424600F02FF9084301D00120D9
:1005100000E00020044345EAE07526432F430A9893
:100520004FEAD625A0EB08000A304FEA46534FF0B9
:10053000000245EA47554FEAD72402D5002001467C
:10054000D1E7010550196141DDE90845001969410C
:10055000BDE8F04DA0E72DE9FE4F074681EA030014
:10056000C00F0E46019021F0004123F00044B81A5C
:10057000A14105D23846314617461E460B46024673
:1005800023F00040104304D13846314603B0BDE8A3
:10059000F08F350DC5F30A00C3F30A510290401ADB
:1005A0000090402868DAC3F3130040F4801B0198E0
:1005B000924620B10023D2EB030A63EB0B0B0098A9
:1005C0005946C0F14002504600F0CEF880460C4635
:1005D00050465946009A00F0E6F8C0197141EF17ED
:1005E00085EA11533B4340D0019A52B3009A012A45
:1005F00011DC0022801A4FF0004361EB055103EA41
:1006000005538018CDE9002341F580114246234669
:10061000FFF74FFFBAE72E050025401B61EB0601EF
:10062000401941F58012001852412818A6F5001310
:1006300043EB020140EAD470294318EB08086441F7
:1006400013E064084FEA38084FF0000244EAC0742F
:100650004FEA0553801A61EB0301801841F58011C0
:1006600049084FEA3000801859414246234603B0FA
:10067000BDE8F04FFFF710BF0198012240000023B2
:10068000D0EB020263EBE07301984FEAE074381A92
:1006900066EB0401EBE783F000435CE781F0004187
:1006A00059E72DE9F04D00231A461B1A8A4103DB56
:1006B00000200146BDE8F08DC1F30A52C1F31301D9
:1006C00041F480154FF0000BD10702D100186D41A5
:1006D000521E0026044640F2FF11304601EB620A2A
:1006E00037468046024600204FF4801100F04BF858
:1006F00080197941331847EB0102B4EB030C75EB19
:10070000020C04D3E41A65EB020506460F462419D1
:1007100008F101006D4180463428E3DDB11947EB53
:100720000700091BA84103D24FF0FF32134601E036
:10073000002213461BEB060047EB0A51BDE8F04DC3
:10074000FFF7AABE064C074D06E0E06840F0010343
:1007500094E8070098471034AC42F6D3FFF718FD31
:10076000A0510008C0510008202A04DB203A00FAFA
:1007700002F1002070479140C2F1200320FA03F3F8
:10078000194390407047202A04DB203A21FA02F0F6
:100790000021704721FA02F3D040C2F120029140BB
:1007A000084319467047202A06DBCB17203A41FA46
:1007B00002F043EAE071704741FA02F3D040C2F11F
:1007C0002002914008431946704770B501EB0204BE
:1007D00010F8015B15F0070301D110F8013B2A1155
:1007E00006D110F8012B03E010F8016B01F8016B42
:1007F0005B1EF9D12B0705D40023521E0FD401F83C
:10080000013BFAE710F8013B02F10202A1EB0303FE
:1008100003E013F8015B01F8015B521EF9D5A14218
:10082000D6D3002070BDFEE7C1B2000A40EA012025
:10083000704700002DE9F05FDFF830B14BF6BF766E
:1008400048F28007484D40F68F79484CDFF820A1E8
:100850000BF1440B2EE00188464A11F00F01117094
:1008600031D004EB810001681FFA81F85FEA08418A
:100870000CD50168134689B201EA090101603E48BE
:10088000197800EB810050F8040C80475FEA08609B
:1008900010D53848017804EB81010A6848F60F73D7
:1008A00092B21A400A603549007801EB800050F896
:1008B000040C8047DBF800105046AAF80010090429
:1008C000C9D4BDE8F09F21682980298801F0300152
:1008D0006980298801F440512980216889B231401A
:1008E00081F4005181F02001394321600088C00665
:1008F0000028206880B217DB48F60F71084020609E
:1009000000F008FD23E02988890401D580F4005017
:100910006988C90624D46988890601D580F0200039
:1009200080B238432060CCE7010507D5206880B24B
:1009300000EA0900206001F0CDFE08E00004B9D50E
:10094000206880B200EA0900206001F08DFA20687A
:10095000298880B23040C904D5D580F48050D2E7D0
:1009600080F01000D7E7000016000020005C004077
:100970007600002004000020940000207800002071
:10098000074901EB80000168490408D5016848F671
:100990008F7289B211404CF280021143016070479E
:1009A000005C0040074901EB80000168490608D55A
:1009B000016848F68F7289B2114048F2C0021143B3
:1009C00001607047005C0040064901EB8001086847
:1009D00048F68F6280B2104048F2800210430860EF
:1009E00070470000005C0040124910B50A680628F4
:1009F000117801F07F0103D1012901D1537913B19D
:100A000021290AD013E09078222802D0212802D090
:100A10000DE0094904E0094902E0032807D108492B
:100A200029B10020916150828847002010BD02202A
:100A300010BD000008000020850A00085D0A0008BB
:100A4000690A0008014901F003BF0000C800002046
:100A5000014901F0FDBE0000C0000020014901F085
:100A6000F7BE0000D800002008B1044870470449D0
:100A7000012009680882002070470000BC000020A7
:100A800008000020014901F0E3BE0000D000002072
:100A900005490968C978042901D900207047034A2B
:100AA00002EBC10101F0D4BE0800002010010020BB
:100AB00009B9002800D002207047000006490968E3
:100AC000097801F07F01212901D10B2801D00220F2
:100AD000704700F06FB8000008000020274810B5EC
:100AE000006800218172C1722549C97941720020D4
:100AF00001F0D6FC4FF40071002001F09DFD1021A3
:100B0000002001F06FFD1821002001F0F3FC5821B6
:100B1000002001F049FD0020FFF756FF194890F82A
:100B20002C10002001F0F6FC002001F02BFD4FF40A
:100B3000C061012001F080FD4FF48071012001F0BF
:100B400033FD4FF4A071012001F0D4FC40210120BD
:100B500001F03AFD4021012001F0DCFC4FF440514E
:100B6000012001F0F7FC2021012001F03BFD0020D5
:100B700001F09EFC04490120086010BD080000201F
:100B800063500008E0000020B00000200448006826
:100B9000807A002802D003490520086070470000D1
:100BA00008000020B00000200149042008607047C0
:100BB000B0000020034804490068C07808600020A5
:100BC0007047000008000020BC00002070477047FC
:100BD00010B500F029FB054800240068847201F07C
:100BE00099F902F08DF90248046010BD0800002058
:100BF000B00000202DE9F05FDFF89CB0DFF89C909A
:100C00004FF0300ADBF8001001F11004088A0E7A68
:100C100008B9042E04D0A588A84216D8042615E0E9
:100C20001F490878012804D007261021A9F80010D0
:100C30002CE01C4A002012681B4B92B203EB4202CC
:100C40005060A9F800A0087020E00226854200D973
:100C50000546A8B2A168074688478046002000F0F4
:100C6000D5FA01463A46404602F082F9394600205C
:100C700001F0AAFC2088401B208060882844608006
:100C8000A9F800A009494FF440500880DBF80000A3
:100C90000672BDE8F09F0000080000201800002048
:100CA00000000020505C0040006000401600002062
:100CB0002DE9F047234FDFF890A04FF030093C6852
:100CC00034F8100FA168B1B108B3A588854200D9E6
:100CD0000546A8B20646884780462088401B2080EB
:100CE000608828446080002000F070FA0146324697
:100CF000404601F0DDF8208848B114494FF44050D7
:100D000008800021084601F05FFCAAF800902088C6
:100D1000A188884201D3032001E020B10520396871
:100D20000872BDE8F087396806200872084900207B
:100D30000968084A89B202EB41014860AAF80090AC
:100D4000EFE7000008000020180000201600002037
:100D5000505C0040006000402DE9F0415C4C5D4D6E
:100D600009262068002729684278062A05D0AAB1FA
:100D7000082A4BD00A2A4ED069E00278520666D182
:100D80008078012804D0022804D0032804D05EE033
:100D9000C96954E0096A52E0496A50E04288A2BB3E
:100DA000C288022A53D102797ABB0278530601D154
:100DB000838833B102F07F02012A04D0022A0CD0CA
:100DC00045E045493BE08A69407900219047E0B918
:100DD0002068807A0028F4D139E0417901F00F00D1
:100DE00001F070020B063D4951F8201003D5C1F304
:100DF0000111090102E0C1F301310903384B1B78ED
:100E0000834224D90AB90029DBD120E000784006CA
:100E10001DD1344913E0027802F07F02012A16D175
:100E2000827AA2B1428892B9027982B9C288012A33
:100E30000DD18A6940790021904740B92A4931B1E2
:100E400020684782816100208847002006E02968E9
:100E50002068096940788847032808D021680A8AF1
:100E6000A2F57F43FF3B05D10E72BDE8F0812068FB
:100E70000672FAE7022808D03AB10878000620D5B1
:100E8000C888824205D9088213E04FF00800087232
:100E9000EBE70ED22868154B90F82C00824201D265
:100EA0001F7006E0B2FBF0F400FB142008B901202B
:100EB0001870286890F82C008882BDE8F041FFF790
:100EC00099BE032008720A4900030880CDE700009C
:100ED000080000200C00002095280008005C00405D
:100EE000B7000020292800086D2800080000002015
:100EF000160000207047000001490120087070476B
:100F00007200002010B50849012002F009F80446DB
:100F10004FF44051012001F01DFB2146BDE8104077
:100F2000014804F06FB80000BC02002010B500209A
:100F300000F062F8002804D0BDE81040002000F066
:100F400041B810BD10B50A2000F056F8002806D0B0
:100F50000A2000F037F8BDE8104003F07BBB10BD5D
:100F600010B5012000F048F8002806D0012000F05C
:100F700029F8BDE8104003F047B810BD10B50220B5
:100F800000F03AF8002804D0BDE81040022000F03C
:100F900019B810BD10B5042000F02EF8002804D0B8
:100FA000BDE81040042000F00DB810BD10B50520BC
:100FB00000F022F8002804D0BDE81040052000F021
:100FC00001B810BD00F01F0201219140024A20F03B
:100FD0001F0081507047000014040140054920F0B3
:100FE0001F0211440A6800F01F03012098400243C9
:100FF0000A6070471004014001460A4B10B521F009
:101000001F020020D35801F01F040121A140054C0C
:101010000B40143412590A4202D0002B00D0012098
:1010200010BD000000040140F0B50368374A03F02A
:101030001F048579012101FA04F423F01F031344EE
:10104000002D5CD01D68A5431D600368141D23F0AE
:101050001F052C44256803F01F0301FA03F39D4389
:1010600025600468037924F01F0515442B441D688E
:1010700004F01F0401FA04F425431D600468234BA7
:1010800024F01F0508331D442E6804F01F0401FAE4
:1010900004F4A6432E6004681E1D24F01F0505EB12
:1010A000060CDCF8005004F01F0401FA04F7BD43FD
:1010B000CCF800504479102C0BD0036823F01F00AB
:1010C00010442044026803F01F0399400A43026061
:1010D000F0BD046824F01F021A44136804F01F04D2
:1010E00001FA04F423431360006820F01F02324425
:1010F000136800F01F0081400B431360F0BD0079BE
:1011000018440168A1430160F0BD000000040140E3
:101110000249032008600020FFF754BFB000002000
:10112000F0B50022012303240E6803FA02F52E40D5
:10113000AE4232D10D79012D01D0022D14D1876834
:10114000550004FA05F6B74387604E79AE408568CE
:101150002E438660858803FA02F6B543858086882B
:101160008D7995402E43868006684FEA420C04FA3A
:101170000CF5AE4306600D79066805FA0CF53543AB
:101180000560C568560004FA06F7BD43C560CD7911
:10119000C66805FA0CF53543C560521C102AC3D346
:1011A000F0BD4B07DB0E9A40C90810B500EB81007B
:1011B000016A0F249C40A1430162016A114301624C
:1011C00010BD0185704781617047000005490968BD
:1011D00089B201EBC000044901EB4000806880B295
:1011E00070470000505C00400060004005490968FD
:1011F00089B201EBC000044901EB4000C068C0F3B4
:1012000009007047505C00400060004004490968D4
:1012100089B201EBC000034951F8100080B2704759
:10122000505C0040006000400A4810B50168001D95
:101230000468001D006808180BD00822064900F059
:1012400097F8054920460422BDE81040103100F00F
:101250008FB810BDE8F7FF1F5A000020FEE7C161FC
:1012600070470029016802D041F0010101E021F03E
:101270000101016070470246002092690A4200D0D5
:101280000120704710B5026822F001020260026876
:10129000124B1A40D1E9013442EA0422134303609D
:1012A0000A6822F070620261026842F00102026084
:1012B00000228260C2600B698A691A438260826878
:1012C00042F400428260CA680368134303604268C4
:1012D000034B49691A401143416010BDFFE0CF0044
:1012E000FF7FFF07406AC0B270478162704700000D
:1012F00030B54468DDF80CC0C1F30901044D41EA82
:10130000024119432C4041EA0C012143416030BDA8
:10131000009800FC10B5134C2068017A022904D013
:10132000042902D0062905D015E0FFF763FC2068E8
:10133000007A11E04178052909D10178490606D1E2
:10134000C07801F0B5F808480068006A804707488F
:10135000006880688047082021680872BDE8104056
:1013600000F0B6BD08000020100000200C00002096
:10137000F0B500230A2530274FF0370C1C460FE04C
:10138000B5EB107F02D907EB107601E00CEB10767D
:1013900001F8136001EB430600015B1C7470DBB2C3
:1013A0009342EDD3F0BD00002DE9F041054614460F
:1013B000012A02D941F0C00001E041F08000094F4C
:1013C00008263E8503F060FC06E0002003F05CFC8C
:1013D000641E05F8010BA4B2002CF6D1BE61BDE875
:1013E000F0810000001000482DE9F0410546144648
:1013F0000846012A01D941F04000084F08263E85E1
:1014000003F042FC05E0287803F03EFC641EA4B221
:101410006D1C002CF7D1BE61BDE8F08100100048C2
:101420002DE9FC470026374681460C46B84602F0B7
:1014300069FD0025DFF878A010E05046018A890791
:10144000FCD5684600F07EF8BDF900006D1C06442E
:10145000BDF902000744BDF904008044A542ECD365
:1014600000EE106AF8EEC00A00EE104AB8EE400A2C
:1014700080EE801A00EE107AF8EEC00A00EE104AF4
:10148000B8EE400A89ED001A80EE801A00EE108A4C
:10149000F8EEC00A00EE104AB8EE400A89ED011AD3
:1014A00080EE801A89ED021A02F03FFDBDE8FC874C
:1014B0000010004808B503F005FA03F089FBFF208F
:1014C0008DF80000012220216846FFF78DFF1020D3
:1014D0008DF80000012223216846FFF785FF0122D5
:1014E00021216846FFF760FF9DF80000012200F00F
:1014F000C0008DF8000021216846FFF775FF01222A
:1015000024216846FFF750FF9DF80000012240F0BB
:1015100010008DF8000024216846FFF765FF0122C6
:1015200022216846FFF740FF9DF80000012240F0AD
:1015300008008DF8000022216846FFF755FF03F0F0
:1015400016FB08BD10B5044606222821FFF72CFF24
:10155000208840422080608840426080A0884042CD
:10156000A08010BD1CB51B48017829B9012101706C
:1015700003F0EAF902F0BCFD47208DF800008DF879
:101580000400012301AA2021322002F003FE0820DA
:101590008DF800008DF80400012301AA23213220D8
:1015A00002F0F8FD01236A462121322002F0E6FD17
:1015B0009DF80000012300F00C0040F090008DF831
:1015C00000008DF8040001AA2121322002F0E2FD82
:1015D0001CBD00007E01002010B504460246062313
:1015E000A821322002F0CAFD208840422080608875
:1015F00040426080A0884042A08010BD124808B5DB
:10160000017829B90121017003F09EF902F070FD03
:1016100014208DF8000001236A4600213C2002F0CE
:10162000B9FDE0208DF8000001236A4619463C20F0
:1016300002F0B0FD00208DF8000001236A4602216F
:101640003C2002F0A7FD08BD7E01002010B5044635
:101650000246062383213C2002F090FD2178627827
:1016600022706170A1786279A2706171E17822794B
:10167000E270217110BD000010B5124C012000F085
:10168000F5FD00F011FE10490870112000F0CCFDAE
:101690000028FAD0012000F0F1FD192000F0C4FD6F
:1016A0000028FAD0022000F0EFFD00BF00F0D6FDC8
:1016B0000828FBD1A17A054809B1052100E00121E4
:1016C000016010BDE80100203C000020B0000020B7
:1016D00010B52DED088BB1EE418AF0EE40AAF0EE88
:1016E00060BAB0EE61BAF0EE428AB0EE62AA18EECD
:1016F000100AFEF769FE41EC190BB1EE6B0A10EE11
:10170000100AFEF761FE41EC100BB0EE491AF0EE44
:10171000691A01F075FE51EC100BFEF76BFE0BEE33
:10172000900A18EE100AFEF74FFE41EC190B1AEE64
:10173000900AFEF749FE41EC100BB0EE491AF0EEAC
:10174000691A01F05DFE51EC100BFEF753FE08EE36
:10175000100AB0EE6B0A02F06BF8F0EE409AB0EEB1
:101760006B0A02F015F9B0EE409AB0EE480A02F0AA
:101770005FF8F0EE40AAB0EE480A02F009F9B0EEC8
:10178000401A6BEE2A0A28EE890A40EE010A2AEE78
:10179000290A40EE010A28EEA91A0AEE491AB1EE0A
:1017A000410A01F021FFB6EE00BAF0EE40AA2BEE9E
:1017B0008B9AB0EE490A02F03BF8F0EE408AB0EEA8
:1017C000490A02F0E5F828EE0B8AF0EE409AB0EEF6
:1017D000480A02F02DF8B0EE40AAB0EE480A02F036
:1017E000D7F86AEE8BAAB0EE409AB0EE6A0A02F021
:1017F0001FF8B0EE402AB0EE6A0AB0EE428A02F05C
:10180000C7F869EE8A3A68EE891A28EE8A3A69EED4
:10181000892A23EE881A204863EE080A00F128017D
:1018200001EEC01A61EE881A42EE800A43EE801A79
:1018300023EE000A20EEA02A02EEC80A80ED0D0A6F
:1018400080ED0E2A20EE812A80ED0F2A20EEA12ABB
:1018500080ED102AC1EC030A60EE800AC0ED110A87
:1018600061EE010AC0ED120A61EE210AC0ED130A11
:1018700061EE000AC0ED140A61EEA10AC0ED150A7E
:1018800061EE800A20EE000AC0ED160A80ED170A0C
:10189000BDEC088B10BD00008001002070B506462D
:1018A0002DED0C8BF0EE40BAB0EE60CAF0EE41CAFE
:1018B000B0EE61AAB0EE428AF0EE628AF0EE43AA80
:1018C000B0EE639AF0EE449AB0EE45BAFE4C217841
:1018D00000297DD001297CD1B6EE00DA2BEE0D0A6D
:1018E00084ED180A2AEE0A0A08EE080A08EEA80A89
:1018F00010EE100AFEF768FD41EC100B02F004F93F
:1019000051EC100BFEF776FD00EE100ADFEDEF0A4A
:10191000EF4DB0EE00BA70EE600A95ED101AF0EEE1
:10192000E00AF4EEC10AF1EE10FA4ED2B5EEC00AAA
:10193000F1EE10FA49D08AEE001A94ED102AD4ED97
:10194000162A94ED123AC8EE000AC8EE801A94EDF9
:10195000140A30EE420A94ED0F2A32EE222AD4ED18
:101960000E2A20EE0B0A72EEC32A94ED153A22EEEF
:101970000B2A72EEC32A94ED173A72EE832A22EEF6
:10198000213A02EEE03A62EE812A60EE200A40EE51
:10199000612A42EE410A84ED043AC4ED052AC4ED01
:1019A000060A95ED130A94ED011A03EE001A84ED70
:1019B000011A94ED021A02EE801A84ED021A94EDD7
:1019C000031A00EE801A84ED031A2AEEAA0A01E037
:1019D0008DE189E109EE090A09EEA90A10EE100A63
:1019E000FEF7F2FC41EC100B02F08EF851EC100BFC
:1019F000FEF700FD00EE100A002E7DD0B5EEC00A05
:101A0000F1EE10FA78D0C9EE008AD4ED151AD4EDB3
:101A1000172AD4ED113A94ED144AD4ED104A34EE5D
:101A2000245A34EE644A8AEE808A28EE8B1A89EEB4
:101A3000809A3DEE610A28EE0B2A30EE620A62EED1
:101A4000049A62EE000A94ED130A30EE633A30EE27
:101A5000230AD4ED123A41EE030A29EE0B3A22EEA4
:101A6000000A43EE050A3DEE635AD4ED163A75EED0
:101A7000622A60EEA00A01EE220AD4ED0F2A73EE6C
:101A8000E25A33EEA22A03EE250A41EE029A35EE1F
:101A9000611A40EE000A43EE019A10EE900AFEF73A
:101AA00093FC41EC100B02F02FF851EC100BFEF7F9
:101AB000A1FC00EE100AD4ED152AD4ED170A60EE51
:101AC0000B1A3DEE620A94ED103A29EE8B2AD4ED02
:101AD000113A30EE600A61EE800A94ED140A30EE9D
:101AE000431A42EE010A94ED131A31EE631AD4ED53
:101AF0000F3A21EE811A00E037E033EE000A94ED50
:101B0000164A04F11C0021EE800AD4ED121A73EE7D
:101B1000843A7DEE611A02EE231A71EEE21A02EEA9
:101B2000210A29EE202A68EE801A08EE402A49EEA2
:101B3000411A28EE011A08EEE01A84ED091AC0ECE9
:101B4000021A95ED150AD4ED010A41EE800AC4EDA2
:101B5000010AD4ED020A42EE000AC4ED020AD4EDF5
:101B6000030A41EE000AC4ED030A95ED120AD4ED12
:101B7000051A95ED141AD4ED040A01EE80CAD4EDCD
:101B8000081A40EE80BAD4ED070AD4ED0B3A94ED72
:101B90000C3A01EE81CAD4ED021A40EE81BAD4EDBE
:101BA000010A94ED0D2A7CEE212AD4ED061A7BEE73
:101BB000A00A41EE80CA94ED090AD4ED181A40EE4D
:101BC00001CA94ED030A3CEE801A23EEE00A03EE0C
:101BD000620A02EE410A20EE215A94ED0A0A20EE32
:101BE000204A03EE014A02EE624A64EE214A20EEE8
:101BF000224A03EEC14A20EE011A03EEA21A02EEB7
:101C0000204A03EE601A24EE214A73EE042A61EEA4
:101C1000210A30EE051A33EEA40A72EE201A61EEA4
:101C2000010A84ED0A1A84ED0B0AC4ED0C2A40EE79
:101C3000000AC4ED0D1A42EEA20A41EEA10A10EE0E
:101C4000900AFEF7C1FB41EC100B01F05DFF51EC77
:101C5000100BFEF7CFFB00EE100A94ED0A1AC1EE4E
:101C6000000AC4ED0A0AD4ED0B1A81EE801A84ED45
:101C70000B1A94ED0C2AC2EE001AC4ED0C1AD4ED26
:101C80000D2A82EE802A20EEA00A84ED0D2A84ED32
:101C90000E0A20EE810A84ED0F0A20EEA10A84EDDF
:101CA000100A20EE820A84ED110A21EE010A84ED69
:101CB000120A21EE210A84ED130A21EE020A84EDB4
:101CC000140A21EEA10A05E0800100206DE71C4105
:101CD0003C03002084ED150A21EE820A84ED160AE9
:101CE00022EE020A84ED170ABDEC0C8B70BD002EAB
:101CF000FAD0F0EE692AB0EE492AF0EE6A1AB0EE98
:101D0000681AF0EE480AB0EE4A0AFFF7E1FC01213A
:101D10002170E1E5FEE770477047000070B50F21C4
:101D2000C478027801234FF0E026DCB1124C24681D
:101D300004F4E064C4F5E064250AC5F10404E94054
:101D40004578A54084780C402C4321010B4C11555B
:101D5000007800F01F018B40400906EB8000C0F8BE
:101D6000003170BD02F01F008340500906EB800077
:101D7000C0F8803170BD00000CED00E000E400E030
:101D80000249084302490860704700000000FA0554
:101D90000CED00E070B52F4D2868017844784A06B4
:101DA00006D001F07F00012828D002282BD035E092
:101DB000092C06D0052C07D0032C0ED0012C14D0F2
:101DC0002CE000F0AFFD28E0C1787F292ED8817883
:101DD00061BB818851BB807A27E0C17801291DD180
:101DE0008088D8B900F0BAFD17E0C178012915D173
:101DF000818899B9407A80060AD40FE00B2C0DD166
:101E000000F004FE09E0012C02D0032C03D005E011
:101E100000F094FC01E000F0B3FD58B10E480068FA
:101E20004169E0B28847032802D018B108200DE0CC
:101E300009200BE0094A062000211268084B92B2E3
:101E400003EB42025160074A302111802968087271
:101E500070BD0000080000200C000020505C004015
:101E6000006000401800002010B50F4C2068007A78
:101E7000022811D004280FD0032804D0052802D04E
:101E8000072805D008E0FEF713FF2068007A04E079
:101E900006480068C0688047082021680872BDE8CD
:101EA000104000F015B80000080000200C000020D1
:101EB000054B521C520803EB410104D008C920F81D
:101EC000023B521EFAD1704700600040704700008C
:101ED0000C4810B590F82C10002000F01BFB0A48AD
:101EE0000068007A082802D0092809D006E00749CE
:101EF0004FF480500880064910200880002010BD53
:101F0000012010BDE0000020080000201600002085
:101F10001800002010B5012000F070FF06480121D4
:101F200001600021054A0160031D19604FF4E05172
:101F300011800160002010BD405C004014000020B2
:101F4000044A0029516901D0014300E081435161F5
:101F50007047000000100240044A0029D16901D0F6
:101F6000014300E08143D16170470000001002404E
:101F7000044A0029116901D0014300E08143116145
:101F80007047000000100240044A0029916901D006
:101F9000014300E08143916170470000001002405E
:101FA000044A0029D16801D0014300E08143D16097
:101FB00070470000001002402DE9F047DFF858821A
:101FC0000022D8F80410954D11F00C0103D004291B
:101FD00001D0082901D0056015E0D8F8041001F4FB
:101FE0007012D8F804104FF0020311F4803F03EB95
:101FF00092423BD0D8F82C1001F00F01491CB5FBE0
:10200000F1F14A430260D8F80410854E01F0F00166
:10201000090916F80190016821FA09F74760D8F814
:10202000043003F4E0634FEA1323F45C27FA04F36B
:102030008360D8F8044004F460544FEAD42416F8BE
:1020400004C027FA0CF4C460D8F82C60DFF8D0A1E3
:1020500006F4F8764FEA16160AF1100A3AF81660F6
:10206000F70606D5B2FBF6F6066103E06D494A4372
:10207000C8E70161D8F82C6006F478564FEA562676
:102080003AF81660F70603D5B2FBF6F6466100E0B3
:102090004161D8F83060F60601D4856100E08161C5
:1020A000D8F83060B60601D4C56100E0C161D8F847
:1020B0003060F60507D5914205D1CC4503D14FEAF2
:1020C0004206066200E00462D8F83060B60506D524
:1020D000914204D1CC4502D15200426200E04462F8
:1020E000D8F8302096074FF4004211D0D8F830408D
:1020F00004F00304012C0DD0D8F8304004F00304A0
:10210000022C09D0D8F83040E443A40706D006E0FA
:10211000846204E0816202E0826200E08562D8F8B5
:10212000304014F4403F12D0D8F83040C4F301449A
:10213000012C0ED0D8F83040C4F30144022C0AD050
:10214000D8F83040C4F30144032C06D006E0C36243
:1021500004E0C16202E0C26200E0C562D8F830402B
:1021600014F4402F12D0D8F83040C4F38144012C2D
:102170000ED0D8F83040C4F38144022C0AD0D8F8ED
:102180003040C4F38144032C06D006E0036304E02E
:10219000016302E0026300E00563D8F8304014F404
:1021A000401F12D0D8F83040C4F30154012C0ED097
:1021B000D8F83040C4F30154022C0AD0D8F830408B
:1021C000C4F30154032C06D006E0436304E04163EA
:1021D00002E0426300E04563D8F8304014F4400F59
:1021E00014D0D8F83030C3F38153012B10D0D8F875
:1021F0003010C1F3815102290CD0D8F83010C1F34E
:102200008151032900D18563BDE8F0878363FBE733
:102210008163F9E78263F7E70010024000127A0059
:102220005401002000093D00034600200A4A5909D4
:102230000CD001290CD004290CD0516A03F01F02E4
:10224000012393400B4200D0012070471168F5E74D
:10225000116AF3E75168F1E7001002400248406854
:1022600000F00C00704700000010024002490022FC
:102270008A708870704700000010024001490866AB
:102280007047000000004242034A516821F00301F8
:10229000014351607047000000100240014908608E
:1022A00070470000D800424230B500244FF4A065CA
:1022B0001120FFF7B9FF641CAC4201D00028F7D011
:1022C0001120FFF7B1FF002800D0012030BD000031
:1022D00070B51C4C072800D02070217806260425F4
:1022E000194806292CD2DFE801F00306090E162052
:1022F00000F02CF824E000F029F80AE002206070D9
:102300000320207070BD6078401E607060780028E7
:10231000F8D1257070BD016889B241F010010160EB
:10232000052020700A20607070BD6178491E6170C0
:1023300061780029F8D1016889B221F010010160AB
:10234000267070BDB5000020405C004010B5064C02
:10235000206880B220F004002060FFF78DF94FF470
:102360003F40206010BD0000405C00400029018813
:1023700002D041F0400101E021F0400101807047AE
:10238000114910B588420AD1841401212046FFF773
:1023900007FE2046BDE810400021FFF701BE0B49B3
:1023A000884202D10121041404E0094988420AD17B
:1023B0000121C4132046FFF7DBFD2046BDE8104095
:1023C0000021FFF7D5BD10BD0030014000380040AE
:1023D000003C00400246002012890A4200D0012041
:1023E000704730B54A88B2F5827F1ED0828822F4C9
:1023F00070638A881A43828002880C8902F44153F0
:10240000CA888D8922434C892C43CD892C43224391
:102410000C884D882C4322431A430280828B22F47D
:1024200000628283098A018230BD02880C8902F42D
:102430004153CA888D8922434C892C43CD892C4332
:1024400022430C8844F4827422431A430280828817
:1024500022F470638A881A438280DFE7007B70472A
:10246000828822F48052828082880A438280704768
:10247000017370477047000010B58A0721F003040C
:102480000649130F21440F228C689A4094438C60B4
:102490008A68984002438A6010BD00000000014035
:1024A000024920F00700086070470000505C0040BF
:1024B000F0B50E490E4D48F68F760B78002148F2A4
:1024C00080070BE0CCB205EB840CDCF8002092B264
:1024D000324022433A43CCF80020491C9942F1D3C0
:1024E000034940F080004C310860F0BDB700002087
:1024F000005C0040054A21F00101126892B202EB33
:10250000C000034A02EB400081607047505C00400D
:10251000006000400D4A12683E2992B202EBC000F2
:102520000B4A02EB400209D94809C90601D1401EF5
:1025300080B24FF4004141EA802005E04808C90715
:1025400001D0401C80B2800210607047505C004097
:102550000C6000400A4A02EB800210684BF68F7351
:1025600080B200EA0300CB0401D580F480508904D6
:1025700001D580F4005048F2800108431060704794
:10258000005C0040074901EB800108684BF68F7240
:1025900080B2104080F4405048F28002104308603E
:1025A00070470000005C0040054A21F001011268FC
:1025B00092B202EBC000034A42F8101070470000CC
:1025C000505C004000600040044A126892B202EB86
:1025D000C000034A02EB400041607047505C00407D
:1025E000006000400A4A02EB8002106848F6BF73A0
:1025F00080B200EA0300CB0601D580F01000890606
:1026000001D580F0200048F2800108431060704737
:10261000005C0040074901EB8001086848F6BF7282
:1026200080B2104080F0300048F280021043086011
:1026300070470000005C0040054A02EB8000026821
:1026400048F68F1392B21A400A43026070470000A6
:10265000005C00401D480021026842F4A022026094
:102660004FF4A063026801F1010112F4003F01D1AF
:102670009942F7D10168890326D5154A12211160C4
:102680004168416041684160416841F48061416056
:10269000416821F47C114160416841F4E8114160D6
:1026A000016841F08071016001688901FCD54168D1
:1026B00021F003014160416841F00201416041683D
:1026C000C1F381010229FAD17047000000100240D5
:1026D0000020024070B516480068174D81B21548B9
:1026E00000EB4101896889B200EB41042868017A56
:1026F00009290FD02178017061784170A088FEF718
:1027000093F8296848802089FEF78EF82968888028
:10271000A089C880286801210172C08828B1FEF70D
:102720001BFBBDE87040FFF7D3BBFFF733FBF8E7B7
:10273000505C004000600040080000202DE9F0419E
:1027400034480168087810F07F0002D0022805D0D4
:102750005EE0487A00F0DF00487247E048880028D1
:1027600056D10879002853D14A792C4D22F08000A7
:102770001406294B55F8204003D5C4F30114240155
:1027800002E0C4F3013424031E78034686423FD995
:102790007CB3897A69B311060ED555F82010C1F3C0
:1027A000011101291ED1D8B20446FEF7FBF83021F1
:1027B0002046FFF717FF15E005EB80042168C1F301
:1027C000013101290ED14BF68F7648F2800788B18E
:1027D000D8B2FEF7D5F8206880B2304080F440507F
:1027E000384320600E480068406980470020BDE8FB
:1027F000F0810DE00B4890F82C100020FFF78AFEC6
:10280000286880B2304080F4405038432860E9E7BF
:102810000220ECE708000020B7000020005C004028
:1028200010000020E000002010B5074C30B1074830
:1028300000680068804720680A3010BD21680120C8
:102840000882002010BD00000800002010000020B9
:10285000054A13685A8A10B108681044704788887E
:10286000801A1882002070470800002010B5074C1D
:1028700030B1074800688068804720680C3010BD80
:10288000216801200882002010BD000008000020FF
:10289000100000201F4910B5096860B11E480022D1
:1028A00002800A7853060AD002F07F02012A16D06D
:1028B000022A16D001E002200882002010BD497AC9
:1028C0008A06027802D542F0020201E002F0FD021F
:1028D00049060270D1B210D401F0FE010FE00E489B
:1028E00010BD4A7902F00F0113060C4A52F821106C
:1028F00007D5C1F3011106E0017841F00101017033
:1029000003E0C1F301310129F6D0054800680069F0
:102910008047E4E70800002002000020005C00403F
:10292000100000200A4810B500680A4AC1785278A1
:10293000914203D882780AB982880AB1022010BD78
:1029400081720548006840688047002010BD000083
:1029500008000020B700002010000020064810B535
:102960000068417A41F02001417204480068C06962
:102970008047002010BD000008000020100000204B
:1029800070B51E4803681E48597921F0800500EB98
:1029900085000C06046821F0800204D5C4F30114FC
:1029A0004FEA041C03E0C4F301344FEA043C154C25
:1029B0002478944213D95A888AB9BCF1000F0ED0FA
:1029C0009A7A62B109060029016848F2800289B248
:1029D00007DA48F6BF73194081F0100106E00220C3
:1029E00070BD4BF68F73194081F480511143016023
:1029F0000548006880698047002070BD08000020FD
:102A0000005C0040B70000201000002010B50E4C04
:102A10000E4A20681268C17892694079904721680F
:102A20008A7A22B118B9087908B9887808B10220E1
:102A300010BD07480068C068804720684179C172AE
:102A4000C1780173002010BD080000200C00002098
:102A5000100000200648016889B241F008010160B9
:102A6000016889B241F004010160FEF751BB00002A
:102A7000405C0040134810B5C2680121521CC2607E
:102A8000B2F57A7F01D98170C160C2680523B2FBBB
:102A9000F3F403FB142303B941700A23B2FBF3F4EC
:102AA00003FB142202B90170416811B14168491E4B
:102AB000416005480168002902D00168491E016093
:102AC00010BD00001C00002040000020164810B57A
:102AD000016841F4700101601448016841F001018E
:102AE00001604168124A114041600168114A114079
:102AF0000160016821F480210160416821F4FE0138
:102B00004160C16A21F00F01C162016B0A4A1140A4
:102B1000016300218160FFF79DFD03494FF00060D4
:102B20008039086010BD000088ED00E00010024010
:102B30000CC07FF8FFFFF6FECCFC00FF10B5046A66
:102B400024F001040462D0F818C0046A42EA0312B7
:102B50002CF0F30C24F00A0342EA0C020B4343F07E
:102B600001018261016210BD30B5046A4FF6EF7554
:102B70002C400462D0F818C0046A2CF4734C4CEA60
:102B8000033343EA02220905090C4FF65F731C4028
:102B900041F0100121438261016230BD70B5042112
:102BA0000D07284600F03AF8012820D104212846D4
:102BB00000F024F80E4C6068A060284600F02CF865
:102BC0006060A168401A0B49884203D9E068206020
:102BD00000200BE04821B0FBF1F1E068064B00F06B
:102BE0000F02102823F8121001D2401CE06070BDC3
:102BF0002C000020C04B030004020020C94389B20E
:102C0000016170470029018802D041F0010101E013
:102C100021F0010101807047806B70470369002239
:102C2000C0680B4200EA010001D000B10122104649
:102C3000704770B50D46044608884988AA882B89D4
:102C400018B304282AD00828206A30D04EF6FF7620
:102C500030402062E06986B2206A0907120680B21D
:102C600026F4734646EA12421B0720F4204042EA4B
:102C7000134340EA114040F48050E3612062E98848
:102C80002046BDE8704000F053B82046FFF756FFDD
:102C9000E9882046BDE8704000F030B82046FFF7D4
:102CA00063FFE9882046BDE8704000F02FB84FF67A
:102CB000FF6630402062E06986B2206A090680B271
:102CC0001B0526F0F30642EA134320F42060334349
:102CD00040EA114040F48070E3612062E9882046B8
:102CE000BDE8704000F01BB8002AC26801D00A435A
:102CF00002E0C94389B20A40C2607047826922F08B
:102D00000C02826182690A4382617047826922F4FF
:102D100040628261826942EA012181617047C26931
:102D20004FF6F3731A40C261C2690A43C261704729
:102D3000C2694FF2FF331A40C261C269090642EA12
:102D40001142C2617047000030B50288194B1A4C1D
:102D500098420AD0A04208D0B0F1804F05D0174D5C
:102D6000A84202D0164DA84203D122F070054A882D
:102D70002A43144DA84206D0134DA84203D022F492
:102D800040750A892A4302804A68C2620A8802851D
:102D900098420AD0A04208D00C4A904205D00C4A72
:102DA000904202D00B4A904201D1897A01860121DA
:102DB000416130BD002C014000340140000400405E
:102DC0000008004000100040001400400040014096
:102DD00000440140004801404FF0FF3141600021B4
:102DE0000180018141808172704710B50020FFF79A
:102DF0006FFABDE810401220FEF7E4B8044A00283C
:102E00004FF48041104601D0FEF7DBB9FEF7DBB985
:102E10000010004806480549022201600A72064A6D
:102E20000449C0E90112086800470000E8010020D9
:102E300008000020E00000203001002070B52A4E7C
:102E400030682A4C60806088294D29880840000439
:102E500001D5FDF7EFFC608829880840400505D5BD
:102E60004FF6FF30306023484068804761882888EB
:102E70000140890402D54DF6FF713160618801403F
:102E8000C80405D54EF6FF7030600020FFF720FA29
:102E900060882988084000050BD51748007810B1D4
:102EA000FFF7D8FD02E00220FFF712FA4FF2FF70A1
:102EB0003060618828880140890506D54FF6FF51AA
:102EC0003160217801F101012170618801EA00017E
:102ED000C80507D54FF6FF603060BDE87040072099
:102EE000FFF7F6B970BD0000445C0040740000209C
:102EF00014000020E0000020B4000020FFF79EBF77
:102F000005490020086005494FF43F400880024908
:102F1000091F086000207047445C00401400002036
:102F200070B500F07F050E462846FEF75FF90446AF
:102F30002846FEF74BF9014622463046FEF7B8FF19
:102F4000204670BD70B500F07F050E461446284639
:102F5000FEF75CF90146A2B21446304600F008F8CC
:102F600021462846FFF730FB002070BDFEE7000039
:102F7000084B10B5521C520803EB410108D00378EE
:102F80004478801C43EA042321F8043B521EF6D106
:102F900010BD00000060004003B40198410000989B
:102FA00050EAC12018BF04204A0D18BF40F00100AC
:102FB00040F2FF72B2EB515F08BF40F002000128FF
:102FC00008BF052002B070474100080218BF042066
:102FD0000A0E18BF40F001004FF07F4232EA0101B3
:102FE00008BF40F00200012808BF0520704700001C
:102FF00010B54FF00E402DED048BB0EE408A18EE68
:10300000104ADFED3A8A00EB4400B0F1506F23D94B
:103010004FF0E440B0EB440F0CD918EE100AFFF764
:10302000D3FF042808BF00F037FEB0EE480ABDEC1D
:10303000048B10BD4FF07F40B0EB440F3EBF38EE25
:10304000080ABDEC048B10BD012000F0DDFE88EE07
:10305000A80ABDEC048B10BD4FF0FC40B0EB440F50
:1030600024BFB0EE680A28EE089A21D2B0EEC80A52
:10307000F7EE000A30EEC00AF6EE000A20EE209AC3
:1030800019EE100A01F094FE00EE900A14F0004FC1
:103090001DBFDFED178A9FED170AF1EE600ADFED25
:1030A000168A08BF9FED150AB8EE001A20EE818A35
:1030B000DFED130A9FED131A30EE080A09EE201A0D
:1030C000DFED110A49EE010A9FED101A09EE201AF0
:1030D000DFED0F0A49EE010A28EE091A01EE200A77
:1030E00030EE280ABDEC048B10BD0000000000008B
:1030F0000000C9BF22AAFDB90000C93F22AAFD39BC
:1031000024FE1C3DC78AD83C1E67383D1B93993D61
:10311000AFAA2A3E0000000070B59F482DED020BBB
:103120002DED068B079D25F0004484421DDB9B4856
:10313000844202DC0FD1069868B19DED060B53EC7A
:10314000102B51EC100BFDF706FABDEC068B02B00C
:1031500041EC100B70BD002DCCBF9FED910B9FED8E
:10316000920BBDEC068B02B070BD9148844215DA1B
:1031700090488442A8BF4FF0FF3440DA9DED060B23
:1031800051EC100BFFF708FF042808BF00F074FD96
:103190009DED060BBDEC068B02B070BD9DED060BE0
:1031A00051EC100B00F0FEFE41EC100B82488DED4F
:1031B000060B9FED839B84423CDA834884421FDAEE
:1031C00000249FED83AB51EC100B53EC1A2BFDF751
:1031D000C2F99DED060B41EC180B53EC1A2B51EC88
:1031E000100BFDF712F853EC192BFDF754FA53ECC2
:1031F000182BFDF77AF841EC100B8DED060B49E02A
:10320000012453EC192B51EC100BFDF7A4F99DEDA3
:10321000060B41EC180B53EC192B51EC100BFDF77E
:103220003AFA53EC182BFDF760F841EC100B8DEDDA
:10323000060B2FE0684884421FDA02249FED68AB3A
:1032400051EC100B53EC1A2BFCF7DFFF53EC192B4E
:10325000FDF781F99DED060B41EC180B53EC1A2B91
:1032600051EC100BFDF717FA53EC182BFDF73DF856
:1032700041EC100B8DED060B0CE053EC102B0324EE
:103280009FED590B51EC100BFDF72FF841EC100B93
:103290008DED060B9DED060B53EC102B51EC100B36
:1032A000FCF7B3FF41EC180B53EC182BFCF7ADFF08
:1032B00041EC190B4E480621B0EE490AF0EE690ABE
:1032C000784400F05DFC53EC182B51EC100BFCF72C
:1032D0009CFF41EC180B4748B0EE490AF0EE690A32
:1032E0000521784400F04CFC53EC192B51EC100BE9
:1032F000FCF78BFF41EC100B51EC180B53EC102B2F
:10330000002C0EDAFDF727F99DED061B53EC112B6F
:10331000FCF77BFF9DED061B53EC112BFDF7BEF96F
:1033200035E0FDF718F99DED061B53EC112BFCF76A
:103330006CFF41EC100B3048784400EBC40090ED7A
:10334000001B51EC100B53EC112BFDF7A4F99DED74
:10335000061B53EC112BFDF79EF941EC100B27488F
:10336000784400EBC40090ED001B51EC100B53ECC3
:10337000112BFDF793F941EC100B002DA2BFBDEC12
:10338000068B02B070BD51EC100B81F0004141EC96
:10339000100BFFE600000000000010440000F07F6A
:1033A000182D4454FB21F93F182D4454FB21F9BF3B
:1033B0000000DC3F0000203E0000F33F0000000062
:1033C000000000000000F03F0000E63F00000000A9
:1033D00000000000000000400080034000000000EA
:1033E000000000000000F83F000000000000F0BFF7
:1033F000841E00003A1E0000C41D00007C1D000059
:1034000070B5694E2DED040B2DED028B82B0DDE918
:10341000053C079ACCF1000422F000414CEA040478
:1034200041EAD474049D23F00040B44205D86C42B4
:103430002C4340EAD474B44210D99DED060B53ECF2
:10344000102B9DED040B51EC100BFDF784F841ECB3
:10345000100B02B0BDEC028B04B070BDA2F1405461
:10346000A4F17F6454EA0C040BD0022404EAA27491
:1034700044EAD37405439FED4E8B9FED4F2B07D04D
:1034800010E09DED040B51EC100B00F0C3FC3BE091
:10349000002C14BF012C9DED040BDAD0022C36D089
:1034A000032C39D051EA0C0C9FED451B9FED460BC8
:1034B0000AD0B14219D1B04209D121F0804120F0A7
:1034C00080400791059010E0002BC2DA11E0DFF890
:1034D00000C1FC44002C08BF9CED000BB9D0012CAE
:1034E0000CD0022C13D0032C16D0B04219D1002BD3
:1034F000AFDAB0EE410AF0EE610AAAE79CED000BEC
:1035000051EC100B81F0004141EC100BA1E7B0EE43
:10351000480AF0EE680A9CE7B0EE420AF0EE620A52
:1035200097E7401A00153C2816DC002ABCBF10F1B2
:103530003C0F9FED290B0FDB9DED060B53EC102B81
:103540009DED040B51EC100BFCF7CFFE00F02AFDB3
:1035500000F060FC41EC100B002C8DED000B3FF4F3
:1035600078AF012C10D0022C9FED1D0B53EC102BCB
:103570009DED000B51EC100B0ED0FDF78CF853ECC9
:10358000182BFDF788F8BFE710EE900A80F0004096
:1035900001909DED000B5CE7FDF77DF853EC182BD7
:1035A000FDF77CF8B0E700000000F07F00000000AD
:1035B000182D4454FB210940182D4454FB2109C007
:1035C000182D4454FB21F9BF182D4454FB21F93F19
:1035D000A21C00000000000000000000000000002D
:1035E000075C143326A6A13C10EE100A10B510EEAD
:1035F000901A4FF0684202EB40032DED028BB3F1BD
:10360000654F3CBF02EB4102B2F1654F3ED34FF034
:103610007F42B2EB400F2FBFB2EB410F30EE200ADA
:10362000BDEC028B10BD40EA01035B0008BF41F016
:10363000FF410BD0B2EB400F08BFB2EB410F08D1F6
:1036400020F0804000EE100A21F0804100EE901A38
:103650001CE0B2EB400F12BF5FEA410240F0FF40B6
:1036600001F0004112D04FEA410292EA40030DD42A
:10367000002AACBF9FED561A9FED561A20EE010AA4
:1036800060EE810A10EE100A10EE901AC0F3C752D5
:10369000C1F3C753D21A1B2A09DD10F0004F14BF23
:1036A0009FED4D0A9FED4D0ABDEC028B10BD12F14E
:1036B0001A0F1BDA11F0004F09D010F0004F14BFA1
:1036C0009FED470A9FED470ABDEC028B10BD80EECF
:1036D000208A18EE100AFFF777FC042808BF00F0D4
:1036E000DBFAB0EE480ABDEC028B10BD4200B2EB33
:1036F000410F37D910F0004F19BFDFED3B1A9FED96
:103700003B1ADFED3B1A9FED3B1AB0EE602A0A46EA
:10371000F1EE400A80F00041B0EE420A10460A1A6B
:103720005200B2F1807F31D24840DFED332A9FED65
:10373000333A10F0004F1DBF9FED312A71EEE21AAF
:1037400031EE431A9FED2F2A04BF71EEA21A31EE1B
:10375000031AF0EE402A42EE602A40EE020A82EEA0
:10376000A02A15E011F0004F04BF9FED271AF0EEDC
:10377000411AD4D010F0004F19BFDFED241A9FED8D
:10378000241ADFED241A9FED241AC8E780EE202AC0
:10379000DFED220ADFED222ABDEC028B22EE020AC7
:1037A00040EE202ADFED1F0A40EE220ADFED1E2A3E
:1037B00040EE202ADFED1D0A40EE220A22EE000A2A
:1037C00000EE201A31EE020A30EE210A10BD000090
:1037D0000000804F0000802FDB0FC9BFDB0FC93F07
:1037E000DB0F49C0DB0F49400000C9BF22AAFDB969
:1037F0000000C93F22AAFD390060ED3EC30ACE3762
:10380000000000BF0000003F00000000000049C0B1
:1038100022AA7DBA0000494022AA7D3A2DAD65BD9D
:103820008FB8D53D0FB511BE61C84C3EA8AAAABE3F
:1038300010EE101A08B5464A6846B2EB410F09D996
:103840004FF0E640B0EB410F8CBF4FF0FF3000204F
:1038500000902FE03F4B21F00042934228D911F015
:10386000004FDFED3D0A20EE201ADFED3C0A19BFC4
:1038700031EE601A71EE200A31EE201A71EE600A04
:10388000BDEEE01A11EE100A9FED351A00F00300AC
:1038900000EEC10A9FED331A009000EEC10A9FEDC1
:1038A000321A00EEC10A9FED311A00EEC10A01E0A2
:1038B00000F0FAF90098F0EE400A002816DA10EE4F
:1038C000900A4000B0F17F4F88BF30EEA00A3CBFA5
:1038D0009FED270A08BD18BF08BD4FF0010000F09A
:1038E00093FADFED240A80EEA00A08BD10F0010F64
:1038F00016D020EEA00ADFED201A9FED201A10F05E
:10390000020F00EE611ADFED1E1A40EE011A21EEE1
:10391000801AB0EE600A00EE810A18BF08BD13E0FD
:1039200060EEA00A9FED171A9FED170A10F0020F24
:1039300000EE810A9FED151A00EE801AB7EE000A1C
:1039400000EE810A08BF08BDB1EE400A08BD0000C4
:10395000B61F927E490E494683F9223F0000004B74
:103960000000C93F00A0FD390020A2331A61342CA9
:103970000000803F00000000336D4C39DA82083CC3
:10398000A0AA2ABEB93AB2BACA9F2A3DDDFFFFBE3D
:1039900000B510EE101A2DED028B81B04B4A68462F
:1039A000B2EB410F09D94FF0E640B0EB410F8CBFAD
:1039B0004FF0FF30002000902FE0454B21F00042F7
:1039C000934228D9DFED430A11F0004F20EE201A70
:1039D000DFED410A19BF31EE601A71EE200A31EEB7
:1039E000201A71EE600ABDEEE01A11EE100A9FED8A
:1039F0003B1A00F0030000EEC10A9FED391A009057
:103A000000EEC10A9FED371A00EEC10A9FED361A8B
:103A100000EEC10A01E000F047F90098B0EE408ADC
:103A2000002823DA18EE100A4000B0F17F4F88BF5B
:103A300038EE080A0DD218EE100AFFF7C5FA04286E
:103A400008BF00F029F9B0EE480A01B0BDEC028BC6
:103A500000BD1EBF01B0BDEC028B00BD012000F017
:103A6000D3F9DFED220A80EEA00AEEE710F0010F95
:103A700015D068EE080A9FED1E1A9FED1E0A10F081
:103A8000020F00EE810A9FED1C1A00EE801AB7EEBD
:103A9000000A00EE810AD8D0B1EE400AD5E728EE40
:103AA000080A9FED161ADFED160A10F0020F40EE1D
:103AB000410A9FED141A00EE201A61EE000AB0EEE2
:103AC000480A08EE200AE7D1BFE70000B61F927E41
:103AD000490E494683F9223F0000004B0000C93FD0
:103AE00000A0FD390020A2331A61342C0000000030
:103AF000B93AB2BACA9F2A3DDDFFFFBE336D4C39D9
:103B0000DA82083CA0AA2ABE00B52DED048BB0EEE7
:103B1000408AF0EE608A83B051EC180BFCF7C1FDCF
:103B200041EC190B19EE101A19EE900A8DED009B5D
:103B3000002918BF0121084320F00040C0F17F6038
:103B400010F1E04014D518EE101A18EE900A8DED21
:103B5000008B002918BF0121084320F00040C0F16C
:103B60007F6000F1E0400028A4BF012000F04CF984
:103B7000B0EE490A03B0F0EE690ABDEC048B00BD5B
:103B800070B505462DED028B4C1E00EBC400B0EE67
:103B9000408AF0EE608A90ED000B34F0060017D0FA
:103BA00053EC182B51EC100BFCF72FFB41EC100BD6
:103BB000641E05EBC40090ED001B51EC100B53ECA0
:103BC000112BFCF7C8FC41EC100B34F00600E7D1D8
:103BD000022C36D0042C1CD0062C1CBFBDEC028B52
:103BE00070BD53EC182B51EC100BFCF70EFB95ED50
:103BF0000A1B53EC112BFCF7AEFC53EC182BFCF713
:103C000004FB95ED081B53EC112BFCF7A4FC41ECD5
:103C1000100B53EC182B51EC100BFCF7F6FA95ED4A
:103C2000061B53EC112BFCF796FC53EC182BFCF7FE
:103C3000ECFA95ED041B53EC112BFCF78CFC41ECDA
:103C4000100B53EC182B51EC100BFCF7DEFA95ED32
:103C5000021B53EC112BFCF77EFC53EC182BFCF7EA
:103C6000D4FA95ED001B53EC112BFCF774FCBDEC62
:103C7000028B41EC100B70BD9FED050B10B553ECA2
:103C8000102B51EC100BFCF7C0FA41EC100B10BDDF
:103C900000000000000000109FED020A20EE000A64
:103CA00070470000000000102DE9F0014FF07F4246
:103CB000B2EB410F9FBF4FF0FF310160BDE8F00153
:103CC00070474FF0004242EA0123C1F3C752783AED
:103CD000541102F01F023E4DC2F1200C7D4455F8F4
:103CE000246005EB84049640656825FA0CF7374399
:103CF000A668954026FA0CF8E46806FA02F224FA5F
:103D00000CFC42EA0C0645EA0805A7FB03C4A5FB28
:103D10000352A6FB03631D449D4234BF01230023CD
:103D200094449C4413B1944502D903E0944501D2D4
:103D3000012200E00022224402F1200392064FEA11
:103D4000DC4442EA443400EE104A4FEA4C32DFEDE4
:103D5000210AB8EEC01A00EE102A9B090360B8EEE3
:103D6000400A11F0004F60EE201A00EE105ADFED0D
:103D70001A0AB8EE400A20EE200A71EE210A70EE0F
:103D8000800A10EE902A02F500626FF30B0200EE3B
:103D9000902A30EEC11A31EE611ADFED111A30EEC1
:103DA000411A9FED0E0A20EE800A01EE210A9FEDD6
:103DB0000D1A00EE810A04BFBDE8F0017047C3F19F
:103DC00080510160BDE8F001B1EE400A704700008B
:103DD000A0140000000000360000802C22AAFD295B
:103DE000DB0FC92F0000C92F02E008C8121F08C14D
:103DF000002AFAD170477047002001E001C1121F6C
:103E0000002AFBD17047000001490860704700009C
:103E1000E401002010B541EC100BFFF77DF951ECE7
:103E2000100B10BD2DE9FC41002637460446B8466C
:103E3000354627E06846FDF7CFFBBDF9000000EEF0
:103E4000106A00EE900ABDF902006D1CF8EEE00A5F
:103E500030EE200A00EE900ABDF9040010EE106A60
:103E6000F8EEE00A00EE107A30EE200A00EE900A3A
:103E700010EE107AF8EEE00A00EE108A30EE200A1A
:103E800010EE108AA542D5D300EE104A00EE906ADB
:103E9000B8EE401A80EE810A00EE904A01EE107AE8
:103EA000F8EE601AC1EE210A01EE104A01EE908A86
:103EB00020EE000AB8EE412A81EE821A00EEA00A36
:103EC00001EE010A10EE100AFCF77EFA41EC100B2D
:103ED000FFF71AFE51EC100BFCF78CFA00EE900A7B
:103EE0009FED021A81EE200ABDE8FC816DE71C41BE
:103EF00000B500F07DF802498968B0FBF1F000BD23
:103F00001C00002038B506208DF8000000248DF834
:103F100003406846FDF702FF07208DF800008DF88A
:103F200003406846FDF7FAFE38BD38B506208DF827
:103F300000000F248DF801408DF8024001258DF816
:103F400003506846FDF7EAFE07208DF800008DF863
:103F500001408DF802408DF803506846FDF7DEFE03
:103F600038BD000000B58FB06846FEF725F8094857
:103F7000016841F0807101600748016841F001016A
:103F8000016006490098B0FBF1F0054988600FB068
:103F900000BD0000FCED00E0001000E040420F001A
:103FA0001C00002041EC100B82B010EE900A8DED49
:103FB000000B20F0004001909DED000B02B051EC91
:103FC000100B7047094A10B51268074B914206D989
:103FD000114604E033F8024B20F8024B491E002939
:103FE000F8D1104610BD0000040200202C00002073
:103FF0000348016841F080710160024840687047E1
:10400000FCED00E0001000E02DE9F04186B0FFF784
:104010006FFF354EB168411AF160B0603078012809
:1040200056D16846FDF78EFA02A8FDF7D5FA04A826
:10403000FDF70CFB00272D4D7770BDF902102869A4
:1040400008442861BDF90010686908446861BDF939
:104050000410A8690844A861BDF90810E86908447B
:10406000E861BDF90A10286A08442862BDF90C10FD
:10407000686A08446862BDF91010A86A0844A8621A
:10408000BDF91210E86A0844E862BDF91410286B03
:10409000084428632868401C2860042818D3FFF7C8
:1040A00027FF05F1100104462422884601F124006F
:1040B000FCF786F824214046FCF79BF82868C5E900
:1040C00000700120B070A86808B1201AE860AC60E8
:1040D000FFF70EFFB168401A30613069401C306153
:1040E00006B0BDE8F081000044000020240200205A
:1040F00030B5012189B04805FDF72EFF0121880464
:10410000FDF71EFF1A4D042206212846FDF749F847
:10411000042207212846FDF744F802218DF82010DB
:1041200000248DF822408DF8231003208DF8210003
:104130004020079007A92846FCF7F2FF802007904F
:1041400007A92846FCF7ECFF019403940294049419
:10415000059406940748084C009069462046FDF7F0
:1041600091F801212046FDF77CF809B030BD000030
:10417000000400480A0431000054004008B50093D0
:1041800013460A460146024800F010F808BD000038
:104190000054004008B5009313460A460146024801
:1041A00000F06CF808BD0000005400402DE9F84F05
:1041B0004FF4004983468A46164698464C460A9D67
:1041C00002E0641E601C57D049465846FDF753F87C
:1041D0000028F6D14FF400500090002301225146F0
:1041E0005846FDF785F84F4602E07F1E781C43D005
:1041F00002215846FDF73FF80028F6D031465846D0
:10420000FDF773F84E4602E0761E701C34D0402154
:104210005846FDF730F80028F6D04FF410500090C3
:104220004FF00073EAB251465846FDF761F811E0CD
:104230004C4602E0641E601C1ED004215846FDF767
:104240001AF80028F6D05846FDF74CF86D1E08F80D
:10425000010BADB2002DEBD14E4602E0761E701C74
:104260000AD020215846FDF706F80028F6D0202174
:104270005846FCF7F4FF0120BDE8F88F2DE9F84F10
:104280004FF4004A83460F461646994654460A9D07
:1042900002E0641E601C64D051465846FCF7EBFFF8
:1042A0000028F6D14FF40050C30200900122394695
:1042B0005846FDF71DF8D04605E000BFA8F10108FB
:1042C00018F101004DD002215846FCF7D4FF002818
:1042D000F4D031465846FDF708F8564602E0761EFF
:1042E000701C3ED080215846FCF7C5FF0028F6D050
:1042F000002000904FF00073EAB239465846FCF7B0
:10430000F7FF11E0544602E0641E601C29D0022130
:104310005846FCF7B0FF0028F6D099F80010584630
:10432000FCF7E3FF6D1EADB2002DEBD1574602E066
:104330007F1E781C15D002215846FCF79CFF0028F0
:10434000F6D0544602E0641E601C0AD02021584674
:10435000FCF791FF0028F6D020215846FCF77FFF9C
:104360000120BDE8F88F0000264801219FED260AB4
:10437000017080ED010A80ED020ADFED240A00F1F0
:104380000C019FED231ADFED231A81EC020A303174
:10439000C0ED050AC0ED060A80ED070A80ED080AA7
:1043A00080ED090A80ED0A0A80ED0B0A80ED0C0A07
:1043B00080ED0D0A80ED0E0AF7EE000A81EC030A8B
:1043C000F0EE000AC0ED120AC0ED131AC0ED140A97
:1043D000C0ED151AC0ED160A80ED190A2031C1ECA6
:1043E000020A0C31DFED0C0A81EC020ADFED0B0A48
:1043F000C0ED1C0A80ED1D0A9FED090A80ED1E0A22
:10440000704700003C030020000000006F12033AD8
:10441000CDCCCC3D0AD7A33B6DE71CC100007F4348
:104420000080264492B04FF4A060FDF7A9FC00F094
:10443000B1FBFFF797FD00F06DFA00F039FBFFF7D5
:1044400093FFFDF737F8FDF78DF8FDF7D7F800F08B
:10445000EDF800F0C9F8282205215B4800F064F966
:10446000072000F051F90446FF21E22000F0BEF9D8
:10447000FF21E12000F0BAF92146272000F0B6F92B
:1044800000F0D2F9FEF7C6FCC820FFF7CBFC4F4C7A
:104490004FF47A714E4884ED010AFCF7C1FF4C4D90
:1044A0004FF0010B7C3DD5E91F10C5E91F0184F8D1
:1044B00000B05846FCF792FD464FDFF81C91DFF83C
:1044C0001CA1DFF81C810026387840B33E708DF8BF
:1044D00000602078032802D0022804D01FE068463C
:1044E00000F098F910E002208DF8000009208DF806
:1044F00001000DF10200FDF725F802A8FDF76CF8A8
:104500000DF10E00FDF7A2F84021684600F084FD91
:104510009DF8000018B14021684600F07DFDA078AC
:1045200068B3A670E86850B300F062FC20780128F8
:1045300013D18DF800B003208DF801009FED290AFA
:10454000234985ED250A10220C310DF10200FBF7FD
:1045500037FE4021684600F05FFDBAF8141081F480
:104560008071AAF81410BAF8141081F48061AAF8C6
:104570001410BAF8141081F40051AAF8141099F824
:10458000001099B189F800602078012809D160787D
:10459000012806D9BAF81000800702D510A8FCF748
:1045A000D1FF60780A2801D2401C607098F8001092
:1045B000002989D088F80060BAF8141081F40071DD
:1045C000AAF8141080E700004C50000844000020B6
:1045D000A00200201C0000201D0000200010004848
:1045E0001E000020000000001CB50EA10522D1E92C
:1045F0000001CDE900016946302000F0DDF8052218
:104600006946102000F064F8002069460A5CA52A7B
:1046100002D1401C0528F9D3052801D000201CBD7B
:1046200001201CBDA5A5A5A5A500000010B500F0A2
:10463000EDF900F045FBFF2000F09EFB04494FF42C
:1046400000600880024940001039086010BD000079
:104650002804004830B589B0072000F055F804461A
:104660000146272000F0C2F804F07000102809D09D
:10467000202810D0402824D060280AD1022000F041
:1046800099F81EE0002000F095F8FF21E12000F0ED
:10469000ADF809B030BD012000F08CF8F9E76020DA
:1046A00000F032F8054602466946612000F010F835
:1046B00022462946684600F009F8072000F024F851
:1046C0000446C4F34204072CE9D1E2E77047000036
:1046D0002DE9F0410D460B494FF4805714460F80E9
:1046E00000F04AFB064604E0FF2000F045FB05F819
:1046F000010B641EF8D20348103807603046BDE84D
:10470000F08100002804004810B506494FF4805499
:104710000C8000F031FBFF2000F02EFB0149103926
:104720000C6010BD2804004870B50B4620494FF4BA
:10473000006514460D8001461A462A2000F03CF818
:104740000121212000F052F80121222000F04EF832
:104750002146252000F04AF81021312000F046F8CB
:1047600006213D2000F042F81D20FFF7CDFF38B9AB
:104770001C20FFF7C9FF18B97321502000F036F84C
:1047800006213D2000F032F83F213C2000F02EF8B9
:104790000321232000F02AF80621262000F026F825
:1047A0000F21202000F022F801481038056070BD6C
:1047B00028040048704700002DE9F0410D460A49E1
:1047C0004FF4805714460F8000F0D6FA064603E0F7
:1047D00015F8010B00F0D0FA641EF9D20248103827
:1047E00007603046BDE8F0812804004870B50D46EA
:1047F00007494FF480560E8000F0BEFA0446284662
:1048000000F0BAFA024810380660204670BD000079
:104810002804004810B50446032020700821A01C7D
:10482000FFF7D0FB607010BD70B501218AB008465B
:10483000FDF792FB01214804FDF782FB0220039063
:104840008DF8100003208DF8110000248DF812401F
:1048500001254FF090468DF8135003A93046FCF720
:104860005FFC012211463046FCF79BFC1C208DF8B2
:1048700014008DF815508DF8175005A8FDF74EFA65
:1048800006A8FEF7A9FAAE0706A93046FEF75CFABD
:104890000420ADF80000ADF80450ADF80240ADF8CA
:1048A0000640ADF8084069463046FEF7C2F90122DD
:1048B00004213046FEF718FA01213046FEF7A2F92E
:1048C0000AB070BD7CB501210846FDF75DFB0820EC
:1048D000009001208DF8040000240D4E8DF8064054
:1048E00003258DF8055069463046FCF719FC8DF814
:1048F00004408DF806408DF8055000958DF807406E
:1049000069463046FCF70CFCFFF70FFB7CBD00004E
:10491000001000481CB501214805FDF711FB4FF4BC
:104920007F40009001208DF8040000218DF80610D2
:104930008DF8070003208DF8050069460148FCF753
:10494000EFFB1CBD0010004830B5012185B00846C2
:10495000FDF71AFB3420002403908DF810408DF8E9
:10496000124003208DF811008DF8134003A926484A
:10497000FCF7D6FB02210420FDF77EFD042108464A
:10498000FDF77AFD05210420FDF776FD0220019058
:104990008DF808400C208DF8090001258DF80A508B
:1049A00001A8FCF741FB0420019001A8FCF73CFBA7
:1049B0000520019001A8FCF737FB08208DF80000C6
:1049C0000F248DF801408DF802408DF803506846A1
:1049D000FDF7A4F90A208DF800008DF801408DF84C
:1049E00002408DF803506846FDF798F917208DF8BE
:1049F00000008DF801408DF802408DF803506846A4
:104A0000FDF78CF905B030BD00100048F0B501216C
:104A100085B00846FDF7B8FA01218804FDF790FA41
:104A200001254FF400608DF80450002400908DF8AB
:104A3000064003268DF8056069461B48FCF770FBAD
:104A400028031A4F009069463846FCF769FB8DF839
:104A50000440A8028DF8064000908DF805608DF89E
:104A6000074069463846FCF75BFB0A210120FDF749
:104A700003FD0A2002908DF80C400C208DF80D00EB
:104A80008DF80E5002A8FCF7CFFA28208DF8100000
:104A90000F208DF811008DF812008DF8135004A826
:104AA000FDF73CF905B0F0BD0010004800040048D7
:104AB00070B5012186B00807FDF74EFA01210846BE
:104AC000FDF762FA01214805FDF73AFA0121480491
:104AD000FDF736FA4FF4C050019003208DF809001D
:104AE00002268DF8086000248DF80A404FF09045AA
:104AF0008DF80B4001A92846FCF712FB0E220B2172
:104B00002846FCF74EFB0E220C212846FCF749FBF9
:104B10001220FCF757FA122003908DF8104008205D
:104B20008DF8110001258DF8125003A8FCF77CFACE
:104B30000020FDF7B3FB0121C805FDF70DFA142095
:104B40008DF800008DF801608DF802408DF803505B
:104B50006846FDF7E3F82A208DF800008DF8015033
:104B60008DF803506846FDF7D9F806B070BD1CB546
:104B700001210420FDF780FC00218DF804100120A4
:104B800008218DF8051000908DF806006846FCF7A6
:104B90004BFA1CBD00B58FB06846FDF70DFA0198C1
:104BA0004FF47A71B0FBF1F0B0F1807F0CD220F0BD
:104BB0007F414FF0E020491E4161044AF02111700D
:104BC00000218161072101610FB000BD23ED00E0EC
:104BD00070B501210D0388B02846FDF7D5F90121F4
:104BE0004FF40810FDF7ACF905224FF0904611463E
:104BF0003046FCF7D6FA052206213046FCF7D1FAFA
:104C0000052207213046FCF7CCFA02208DF8180067
:104C100000248DF81A408DF81B4003208DF81900F0
:104C2000E020059005A93046FCF77AFA154E30468B
:104C3000FDF7A6FB4FF4E060ADF80400ADF80840C6
:104C4000E810ADF80A001020ADF80C000720ADF810
:104C50001000ADF800404FF48270ADF80200ADF8DE
:104C60000640ADF80E4069463046FDF7BAFB2946CE
:104C70003046FDF7F5FB01213046FDF777FB08B024
:104C800070BD00000030014070B50C4D044602219B
:104C90002846FDF79FFB0028F9D021462C462846E0
:104CA000FDF7E6FB01212046FDF794FB0028F9D033
:104CB0002046BDE87040FDF7D1BB00000030014048
:104CC00030B5012187B08803FDF746F9012188043A
:104CD000FDF736F9264D05220D212846FCF761FA2D
:104CE00005220E212846FCF75CFA05220F212846F2
:104CF000FCF757FA02208DF8180000248DF81A40AE
:104D00008DF81B4003208DF819004FF4604005908A
:104D100005A92846FCF704FA164D2846FDF730FB96
:104D20004FF4E060ADF80400ADF808406815ADF848
:104D30000A001020ADF80C000720ADF81000ADF807
:104D400000404FF48270ADF80200ADF80640ADF8B7
:104D50000E4069462846FDF744FBA9142846FDF796
:104D60007FFB01212846FDF701FB07B030BD0000A5
:104D7000000400480038004070B50C4D0446022184
:104D80002846FDF727FB0028F9D021462C46284667
:104D9000FDF76EFB01212046FDF71CFB0028F9D032
:104DA0002046BDE87040FDF759BB000000380040C8
:104DB00010B500EE100A2DED028BB1EEC08A18EE90
:104DC000100A20F00040C0F1FF40C00F0AD010EEE2
:104DD000100A20F00040C0F1FF40C00F04BF0120C6
:104DE000FFF712F818EE100ABDEC028B10BD0000A0
:104DF0002DE9F05F764C2DED028B94ED030AB8EEB1
:104E0000400ADFED740AD4ED012A80EE205A94EDB9
:104E10000D0AB8EE621AB8EEC00AC0EE010A94EDAF
:104E20001F0A30EE800A9FED6C1AF8EE621AB8EE97
:104E3000623A20EE010A6948B8EE624A84ED160A29
:104E4000D4ED0E0AF8EEE00A80EEA12AD4ED200A95
:104E500072EE200A60EE810AC4ED170AD4ED0F1A33
:104E6000F8EEE11A81EE832AD4ED211AB8EE623A07
:104E700072EE211A21EE811A84ED181AD4ED101A5F
:104E8000F8EEE11A81EE832A90ED013A544862EE81
:104E9000031AC4ED191A94ED112AB8EEC22AC2EE13
:104EA000043AB8EE624A23EE832A84ED1A2AD4ED3E
:104EB000123AF8EEE33AC3EE842A62EE832AC4ED96
:104EC0001B2A94ED133AB8EEC33A84ED1C3AD4EDA4
:104ED000143AF8EEE33AC4ED1D3A94ED154AB8EEF3
:104EE000C44A84ED1E4AD0ED104A0120FCF7D6FCDE
:104EF0003C4D3D483D4E95ED000ADFF8F4903D4FA6
:104F000060EE001ADFF8F0B0DFF8F080C0ED001AB4
:104F1000D6ED002ADFF8E8A0B0EE008A22EEA22A41
:104F200020EE220A89ED002A97ED003A71EEC21AAE
:104F300063EE030ACBED000AD8ED003A71EEE00A09
:104F400003EE230A23EEA31A8AED001A70EE810AFB
:104F500020EE080AFEF748FB84ED220A96ED000ACF
:104F6000D8ED000A97ED001A20EE200AD5ED000AD0
:104F700000EEC10A20EE080AFEF73AF8B1EE400A48
:104F800084ED230A96ED000AD7ED000A98ED001A89
:104F9000154820EE200AD5ED000A00EE810AD0ED7A
:104FA000000A99ED001A70EE810A9BED001A20EEBE
:104FB000080A70EEC10A9AED001A70EEC10AFEF7F7
:104FC00013FB84ED240ABDEC028BBDE8F09F0000CA
:104FD00024020020002474497A22A03944000020D1
:104FE0003C030020A8010020B8010020AC010020F3
:104FF000C8010020B0010020D4010020B40100202D
:10500000DC0100200178032902D1024940780870B0
:10501000704700004400002010B5402900D3402113
:105020000A4601460748FBF7CBF840220549812094
:10503000FDF788FF0120FDF7EDFA03490020087015
:1050400010BD0000FC0200207200002012345678CF
:10505000F012010002000000405002500200020164
:1050600002030109022900010100E03209040000E5
:1050700002030000000921000200012217000705B9
:10508000810340000107050103400001058C09016F
:10509000A1010901150025FF95407508810209024B
:1050A0009102C00403090414036200790020006C1B
:1050B000007800790070007000630020034D0069E3
:1050C000006E0069002D005100750061006400430E
:1050D000006F0070007400650072000000000000A6
:1050E0004FBB610567ACDD3F182D4454FB21E93F00
:1050F0009BF681D20B73EF3F182D4454FB21F93FEF
:10510000E2652F227F2B7A3C075C143326A6813C74
:10511000BDCBF07A8807703C075C143326A6913C1F
:10512000C4EB98999999C9BF711623FEC671BCBF8B
:105130006D9A74AFF2B0B3BF9AFDDE522DDEADBFF3
:105140002F6C6A2C44B4A2BF0D5555555555D53F0B
:10515000FF8300922449C23F6E204CC5CD45B73F26
:10516000513DD0A0660DB13FEB0D76244B7BA93F9E
:1051700011DA22E33AAD903F000000000000000089
:10518000000000006E83F9A22915444ED15727FC78
:10519000C0DD34F5999562DB4190433CAB6351FE31
:1051A000C051000800000020E8010000CA07000804
:1051B00070520008E8010020D0050000F83D00080A
:1051C0000124021B4832643201C56F12833A141A5B
:1051D000036C127812791A70021263B220292E2100
:1051E00013F90E0C1408191D040B18050F1C594255
:1051F0004A0246211351503308121A630832291A01
:105200008C0832171A7508320913D10B1408DD0AFD
:105210001B08CD081ACF0413E9091B08BD101AB1E9
:10522000041A51041A45041A91044132401AA33851
:1052300032041AA70832141ABB0829BE2258332098
:105240001A29841A8D480916A01AA91C39A42C02FF
:105250000304042B0607871201120212041A061B0C
:10526000120A120C12101A206C3A80C90168000050
:040000050800018965
:00000001FF
