:020000040800F2
:10000000400600209D0100082B1000087D0C000810
:100010002910000865020008812200080000000085
:100020000000000000000000000000008917000828
:100030003109000800000000E1110008891D0008D6
:10004000B7010008B7010008B7010008B7010008B0
:10005000B7010008B7010008690900089D090008F8
:10006000B9090008B7010008D1090008B701000864
:10007000B7010008B7010008B7010008B701000880
:10008000B7010008B7010008B7010008B701000870
:1000900011220008B7010008B7010008E9090008AB
:1000A000B7010008B7010008B7010008B701000850
:1000B000B11E0008B7010008B7010008B701000829
:1000C000B7010008B7010008B7010008B701000830
:1000D000B7010008B7010008B7010008B701000820
:1000E00081090008B7010008FF200008B7010008D7
:1000F000B7010008B7010008B7010008B701000800
:10010000000000000000000000000000B70100082F
:10011000B7010008B7010008B7010008B7010008DF
:10012000B7010008B7010008B7010008B7010008CF
:10013000B7010008B701000800000000000000003F
:10014000B7010008B7010008B7010008000000006F
:10015000000000000000000000000000000000009F
:100160000000000000000000B7010008B70100080F
:10017000B7010008000000000000000000000000BF
:1001800000000000B7010008DFF80CD000F02AF8EA
:100190000048004711260008400600200648804716
:1001A00006480047FEE7FEE7FEE7FEE7FEE7FEE75C
:1001B000FEE7FEE7FEE7FEE7E11D00088901000813
:1001C00040EA01039B0703D009E008C9121F08C0D9
:1001D000042AFAD203E011F8013B00F8013B521E59
:1001E000F9D27047064C074D06E0E06840F0010385
:1001F00094E8070098471034AC42F6D3FFF7C8FFE5
:10020000343000085430000870B501EB020410F8D7
:10021000015B15F0070301D110F8013B2A1106D14B
:1002200010F8012B03E010F8016B01F8016B5B1E65
:10023000F9D12B0705D40023521E0FD401F8013B3E
:10024000FAE710F8013B02F10202A1EB030303E01D
:1002500013F8015B01F8015B521EF9D5A142D6D318
:10026000002070BDFEE7C1B2000A40EA01207047DD
:100270002DE9F05FDFF830B14BF6BF7648F280072A
:10028000484D40F68F79484CDFF820A10BF1440B24
:100290002EE00188464A11F00F01117031D004EBB5
:1002A000810001681FFA81F85FEA08410CD50168F6
:1002B000134689B201EA090101603E48197800EB52
:1002C000810050F8040C80475FEA086010D5384878
:1002D000017804EB81010A6848F60F7392B21A4064
:1002E0000A603549007801EB800050F8040C804723
:1002F000DBF800105046AAF800100904C9D4BDE884
:10030000F09F21682980298801F0300169802988BF
:1003100001F440512980216889B2314081F40051B3
:1003200081F02001394321600088C0060028206840
:1003300080B217DB48F60F710840206000F0FAFC2D
:1003400023E02988890401D580F400506988C90612
:1003500024D46988890601D580F0200080B2384312
:100360002060CCE7010507D5206880B200EA0900CB
:10037000206001F039FB08E00004B9D5206880B2A4
:1003800000EA0900206000F0F9FE2068298880B2A8
:100390003040C904D5D580F48050D2E780F01000F9
:1003A000D7E7000016000020005C00407A00002023
:1003B00004000020980000207C000020074901EB89
:1003C00080000168490408D5016848F68F7289B237
:1003D00011404CF28002114301607047005C004004
:1003E000074901EB80000168490608D5016848F615
:1003F0008F7289B2114048F2C00211430160704708
:10040000005C0040064901EB8001086848F68F62F5
:1004100080B2104048F2800210430860704700002C
:10042000005C0040124910B50A680628117801F0F6
:100430007F0103D1012901D1537913B121290AD0B8
:1004400013E09078222802D0212802D00DE009493B
:1004500004E0094902E0032807D1084929B1002036
:10046000916150828847002010BD022010BD00001D
:1004700008000020C104000899040008A504000831
:10048000014901F06FBB0000CC000020014901F0E0
:1004900069BB0000C4000020014901F063BB0000FB
:1004A000DC00002008B104487047044901200968B5
:1004B0000882002070470000C000002008000020D3
:1004C000014901F04FBB0000D40000200549096834
:1004D000C978042901D900207047034A02EBC10101
:1004E00001F040BB080000201401002009B90028D9
:1004F00000D002207047000006490968097801F021
:100500007F01212901D10B2801D00220704700F082
:100510006FB8000008000020274810B500680021CF
:100520008172C1722549C9794172002001F042F9F6
:100530004FF40071002001F009FA1021002001F0B1
:10054000DBF91821002001F05FF95821002001F0AB
:10055000B5F90020FFF756FF194890F82C1000203D
:1005600001F062F9002001F097F94FF4C061012019
:1005700001F0ECF94FF48071012001F09FF94FF484
:10058000A071012001F040F94021012001F0A6F9FD
:100590004021012001F048F94FF44051012001F0C1
:1005A00063F92021012001F0A7F9002001F00AF9E8
:1005B00004490120086010BD08000020BB2F00087E
:1005C000E4000020B400002004480068807A00287D
:1005D00002D0034905200860704700000800002091
:1005E000B40000200149042008607047B4000020D6
:1005F000034804490068C078086000207047000084
:1006000008000020C00000207047704710B500F0BF
:100610001BFB054800240068847200F005FE01F011
:10062000F9FD0248046010BD08000020B40000205D
:100630002DE9F05FDFF89CB0DFF89C904FF0300AB6
:10064000DBF8001001F11004088A0E7A08B9042EB4
:1006500004D0A588A84216D8042615E01F490878BA
:10066000012804D007261021A9F800102CE01C4A0C
:10067000002012681B4B92B203EB42025060A9F8B3
:1006800000A0087020E00226854200D90546A8B2E5
:10069000A168074688478046002000F0C7FA014657
:1006A0003A46404601F0EEFD3946002001F016F9C9
:1006B0002088401B2080608828446080A9F800A022
:1006C00009494FF440500880DBF800000672BDE88D
:1006D000F09F00000800002018000020000000200B
:1006E000505C004000600040160000202DE9F047FB
:1006F000234FDFF890A04FF030093C6834F8100F1A
:10070000A168B1B108B3A588854200D90546A8B251
:100710000646884780462088401B20806088284401
:100720006080002000F062FA01463246404600F048
:1007300049FD208848B114494FF4405008800021F9
:10074000084601F0CBF8AAF800902088A1888842DA
:1007500001D3032001E020B1052039680872BDE80B
:10076000F087396806200872084900200968084A9D
:1007700089B202EB41014860AAF80090EFE700005F
:10078000080000201800002016000020505C0040E7
:10079000006000402DE9F0415C4C5D4D0926206869
:1007A000002729684278062A05D0AAB1082A4BD02A
:1007B0000A2A4ED069E00278520666D18078012874
:1007C00004D0022804D0032804D05EE0C96954E0B4
:1007D000096A52E0496A50E04288A2BBC288022AF4
:1007E00053D102797ABB0278530601D1838833B1A1
:1007F00002F07F02012A04D0022A0CD045E04549CC
:100800003BE08A69407900219047E0B92068807A0E
:100810000028F4D139E0417901F00F0001F07002B5
:100820000B063D4951F8201003D5C1F30111090110
:1008300002E0C1F301310903384B1B78834224D90C
:100840000AB90029DBD120E0007840061DD13449E7
:1008500013E0027802F07F02012A16D1827AA2B157
:10086000428892B9027982B9C288012A0DD18A6977
:1008700040790021904740B92A4931B12068478228
:10088000816100208847002006E029682068096906
:1008900040788847032808D021680A8AA2F57F4358
:1008A000FF3B05D10E72BDE8F08120680672FAE7C1
:1008B000022808D03AB10878000620D5C8888242BC
:1008C00005D9088213E04FF008000872EBE70ED25A
:1008D0002868154B90F82C00824201D21F7006E068
:1008E000B2FBF0F400FB142008B90120187028684E
:1008F00090F82C008882BDE8F041FFF799BE0320F4
:1009000008720A4900030880CDE7000008000020B3
:100910000C000020A91B0008005C0040BB00002068
:100920003D1B0008811B000800000020160000206D
:1009300070470000014901200870704776000020D0
:1009400010B50849012001F075FC04464FF44051F0
:10095000012000F089FF2146BDE81040014802F067
:10096000FDBA0000C001002010B5002000F054F8CE
:10097000002804D0BDE81040002000F041B810BDB0
:1009800010B50A2000F048F8002806D00A2000F030
:1009900037F8BDE8104001F00DBF10BD10B50120C3
:1009A00000F03AF8002806D0012000F029F8BDE850
:1009B000104001F013BE10BD10B5022000F02CF85D
:1009C000002804D0BDE81040022000F019B810BD86
:1009D00010B5042000F020F8002804D0BDE8104035
:1009E000042000F00DB810BD10B5052000F014F87B
:1009F000002804D0BDE81040052000F001B810BD6B
:100A000000F01F0201219140024A20F01F00815096
:100A1000704700001404014001460A4B10B521F054
:100A20001F020020D35801F01F040121A140054CF2
:100A30000B40143412590A4202D0002B00D001207E
:100A400010BD000000040140F0B50368374A03F010
:100A50001F048579012101FA04F423F01F031344D4
:100A6000002D5CD01D68A5431D600368141D23F094
:100A70001F052C44256803F01F0301FA03F39D436F
:100A800025600468037924F01F0515442B441D6874
:100A900004F01F0401FA04F425431D600468234B8D
:100AA00024F01F0508331D442E6804F01F0401FACA
:100AB00004F4A6432E6004681E1D24F01F0505EBF8
:100AC000060CDCF8005004F01F0401FA04F7BD43E3
:100AD000CCF800504479102C0BD0036823F01F0091
:100AE00010442044026803F01F0399400A43026047
:100AF000F0BD046824F01F021A44136804F01F04B8
:100B000001FA04F423431360006820F01F0232440A
:100B1000136800F01F0081400B431360F0BD0079A3
:100B200018440168A1430160F0BD000000040140C9
:100B30000249032008600020FFF762BFB4000020D4
:100B4000F0B50022012303240E6803FA02F52E40BB
:100B5000AE4232D10D79012D01D0022D14D187681A
:100B6000550004FA05F6B74387604E79AE408568B4
:100B70002E438660858803FA02F6B5438580868811
:100B80008D7995402E43868006684FEA420C04FA20
:100B90000CF5AE4306600D79066805FA0CF5354391
:100BA0000560C568560004FA06F7BD43C560CD79F7
:100BB000C66805FA0CF53543C560521C102AC3D32C
:100BC000F0BD4B07DB0E9A40C90810B500EB810061
:100BD000016A0F249C40A1430162016A1143016232
:100BE00010BD0185704781617047000005490968A3
:100BF00089B201EBC000044901EB4000806880B27B
:100C000070470000505C00400060004005490968E2
:100C100089B201EBC000044901EB4000C068C0F399
:100C200009007047505C00400060004004490968BA
:100C300089B201EBC000034951F8100080B270473F
:100C4000505C0040006000400A4810B50168001D7B
:100C50000468001D006808180BD00822064900F03F
:100C600097F8054920460422BDE81040103100F0F5
:100C70008FB810BDE8F7FF1F5E000020FEE7C161DE
:100C800070470029016802D041F0010101E021F024
:100C90000101016070470246002092690A4200D0BB
:100CA0000120704710B5026822F00102026002685C
:100CB000124B1A40D1E9013442EA04221343036083
:100CC0000A6822F070620261026842F0010202606A
:100CD00000228260C2600B698A691A43826082685E
:100CE00042F400428260CA680368134303604268AA
:100CF000034B49691A401143416010BDFFE0CF002A
:100D0000FF7FFF07406AC0B27047816270470000F2
:100D100030B54468DDF80CC0C1F30901044D41EA67
:100D2000024119432C4041EA0C012143416030BD8E
:100D3000009800FC10B5134C2068017A022904D0F9
:100D4000042902D0062905D015E0FFF771FC2068C0
:100D5000007A11E04178052909D10178490606D1C8
:100D6000C07800F02FFD08480068006A80470748F7
:100D7000006880688047082021680872BDE810403C
:100D800000F030BA08000020100000200C00002005
:100D9000F0B500230A2530274FF0370C1C460FE032
:100DA000B5EB107F02D907EB107601E00CEB107663
:100DB00001F8136001EB430600015B1C7470DBB2A9
:100DC0009342EDD3F0BD00002DE9F04105461446F5
:100DD000012A02D941F0C00001E041F08000094F32
:100DE00008263E8502F026F806E0002002F022F8F0
:100DF000641E05F8010BA4B2002CF6D1BE61BDE85B
:100E0000F0810000001000482DE9F041054614462D
:100E10000846012A01D941F04000084F08263E85C6
:100E200002F008F805E0287802F004F8641EA4B285
:100E30006D1C002CF7D1BE61BDE8F08100100048A8
:100E400008B501F0EFFD01F099FFFF208DF80000DB
:100E5000012220216846FFF7D7FF10208DF80000FF
:100E6000012223216846FFF7CFFF01222121684696
:100E7000FFF7AAFF9DF80000012200F0C0008DF8E6
:100E8000000021216846FFF7BFFF012224216846A8
:100E9000FFF79AFF9DF80000012240F010008DF846
:100EA000000024216846FFF7AFFF01222221684697
:100EB000FFF78AFF9DF80000012240F008008DF83E
:100EC000000022216846FFF79FFF08BD0622282167
:100ED000FFF77ABF1CB51B48017829B901210170C1
:100EE00001F01AFE01F03EFA47208DF800008DF85F
:100EF0000400012301AA2021322001F085FA0820F4
:100F00008DF800008DF80400012301AA232132206E
:100F100001F07AFA01236A462121322001F068FAB1
:100F20009DF80000012300F00C0040F090008DF8C7
:100F300000008DF8040001AA2121322001F064FA9A
:100F40001CBD00008201002006230246A821322099
:100F500001F04EBA124808B5017829B90121017093
:100F600001F0DAFD01F0FEF914208DF800000123F4
:100F70006A4600213C2001F047FAE0208DF800008D
:100F800001236A4619463C2001F03EFA00208DF804
:100F9000000001236A4602213C2001F035FA08BD19
:100FA0008201002010B504460246062383213C201E
:100FB00001F01EFA2178627822706170A17862795E
:100FC000A2706171E1782279E270217110BD000098
:100FD00010B5124C012000F0D3FA00F0EFFA1049DE
:100FE0000870112000F0AAFA0028FAD0012000F0C1
:100FF000CFFA192000F0A2FA0028FAD0022000F05F
:10100000CDFA00BF00F0B4FA0828FBD1A17A054858
:1010100009B1052100E00121016010BD840100201B
:101020003C000020B4000020FEE77047704700003D
:1010300070B50F21C478027801234FF0E026DCB1AF
:10104000124C246804F4E064C4F5E064250AC5F198
:101050000404E9404578A54084780C402C432101E4
:101060000B4C1155007800F01F018B40400906EB36
:101070008000C0F8003170BD02F01F0083405009AD
:1010800006EB8000C0F8803170BD00000CED00E080
:1010900000E400E00249084302490860704700008C
:1010A0000000FA050CED00E070B52F4D28680178BE
:1010B00044784A0606D001F07F00012828D0022893
:1010C0002BD035E0092C06D0052C07D0032C0ED0F0
:1010D000012C14D02CE000F0AFFD28E0C1787F296E
:1010E0002ED8817861BB818851BB807A27E0C17896
:1010F00001291DD18088D8B900F0BAFD17E0C17868
:10110000012915D1818899B9407A80060AD40FE067
:101110000B2C0DD100F004FE09E0012C02D0032CB1
:1011200003D005E000F094FC01E000F0B3FD58B1FD
:101130000E4800684169E0B28847032802D018B120
:1011400008200DE009200BE0094A06200021126862
:10115000084B92B203EB42025160074A30211180E2
:101160002968087270BD0000080000200C000020F3
:10117000505C0040006000401800002010B50F4C8B
:101180002068007A022811D004280FD0032804D048
:10119000052802D0072805D008E0FFF7A7FA206845
:1011A000007A04E006480068C0688047082021688B
:1011B0000872BDE8104000F015B8000008000020DB
:1011C0000C000020054B521C520803EB410104D0D7
:1011D00008C920F8023B521EFAD170470060004057
:1011E000704700000C4810B590F82C10002000F05B
:1011F0001BFB0A480068007A082802D0092809D099
:1012000006E007494FF48050088006491020088006
:10121000002010BD012010BDE400002008000020C7
:10122000160000201800002010B5012000F070FF0B
:101230000648012101600021054A0160031D196073
:101240004FF4E05111800160002010BD405C00406F
:1012500014000020044A0029516901D0014300E034
:10126000814351617047000000100240044A002988
:10127000D16901D0014300E08143D1617047000092
:1012800000100240044A0029116901D0014300E026
:10129000814311617047000000100240044A002998
:1012A000916901D0014300E08143916170470000E2
:1012B00000100240044A0029D16801D0014300E037
:1012C0008143D16070470000001002402DE9F047D3
:1012D000DFF858820022D8F80410954D11F00C0167
:1012E00003D0042901D0082901D0056015E0D8F801
:1012F000041001F47012D8F804104FF0020311F436
:10130000803F03EB92423BD0D8F82C1001F00F0144
:10131000491CB5FBF1F14A430260D8F80410854E30
:1013200001F0F001090916F80190016821FA09F7A6
:101330004760D8F8043003F4E0634FEA1323F45C09
:1013400027FA04F38360D8F8044004F460544FEAA9
:10135000D42416F804C027FA0CF4C460D8F82C6022
:10136000DFF8D0A106F4F8764FEA16160AF1100A53
:101370003AF81660F70606D5B2FBF6F6066103E00A
:101380006D494A43C8E70161D8F82C6006F47856E5
:101390004FEA56263AF81660F70603D5B2FBF6F682
:1013A000466100E04161D8F83060F60601D48561FD
:1013B00000E08161D8F83060B60601D4C56100E074
:1013C000C161D8F83060F60507D5914205D1CC450A
:1013D00003D14FEA4206066200E00462D8F83060AA
:1013E000B60506D5914204D1CC4502D152004262E5
:1013F00000E04462D8F8302096074FF4004211D044
:10140000D8F8304004F00304012C0DD0D8F8304057
:1014100004F00304022C09D0D8F83040E443A407B8
:1014200006D006E0846204E0816202E0826200E0AD
:101430008562D8F8304014F4403F12D0D8F83040DC
:10144000C4F30144012C0ED0D8F83040C4F3014459
:10145000022C0AD0D8F83040C4F30144032C06D043
:1014600006E0C36204E0C16202E0C26200E0C5625D
:10147000D8F8304014F4402F12D0D8F83040C4F3DC
:101480008144012C0ED0D8F83040C4F38144022CA2
:101490000AD0D8F83040C4F38144032C06D006E0CB
:1014A000036304E0016302E0026300E00563D8F82F
:1014B000304014F4401F12D0D8F83040C4F3015427
:1014C000012C0ED0D8F83040C4F30154022C0AD0BD
:1014D000D8F83040C4F30154032C06D006E043632F
:1014E00004E0416302E0426300E04563D8F8304025
:1014F00014F4400F14D0D8F83030C3F38153012BCB
:1015000010D0D8F83010C1F3815102290CD0D8F88E
:101510003010C1F38151032900D18563BDE8F08704
:101520008363FBE78163F9E78263F7E7001002401A
:1015300000127A005801002000093D0003460020F7
:101540000A4A59090CD001290CD004290CD0516A3F
:1015500003F01F02012393400B4200D0012070478B
:101560001168F5E7116AF3E75168F1E700100240EE
:101570000248406800F00C00704700000010024074
:10158000024900228A7088707047000000100240F3
:10159000014908667047000000004242034A516852
:1015A00021F0030101435160704700000010024028
:1015B0000149086070470000D800424230B500245D
:1015C0004FF4A0651120FFF7B9FF641CAC4201D0B5
:1015D0000028F7D01120FFF7B1FF002800D001202C
:1015E00030BD000070B51C4C072800D02070217859
:1015F00006260425194806292CD2DFE801F0030647
:10160000090E162000F02CF824E000F029F80AE07A
:10161000022060700320207070BD6078401E6070F2
:1016200060780028F8D1257070BD016889B241F05A
:1016300010010160052020700A20607070BD617883
:10164000491E617061780029F8D1016889B221F0E2
:1016500010010160267070BDB9000020405C0040A0
:1016600010B5064C206880B220F004002060FFF71F
:10167000AFFC4FF43F40206010BD0000405C0040D4
:101680000029018802D041F0400101E021F0400131
:1016900001807047114910B588420AD18414012194
:1016A0002046FFF707FE2046BDE810400021FFF767
:1016B00001BE0B49884202D10121041404E009490A
:1016C00088420AD10121C4132046FFF7DBFD2046E2
:1016D000BDE810400021FFF7D5BD10BD003001402E
:1016E00000380040003C00400246002012890A42B7
:1016F00000D00120704730B54A88B2F5827F1ED0F5
:10170000828822F470638A881A43828002880C8956
:1017100002F44153CA888D8922434C892C43CD89D8
:101720002C4322430C884D882C4322431A430280C9
:10173000828B22F400628283098A018230BD028892
:101740000C8902F44153CA888D8922434C892C4369
:10175000CD892C4322430C8844F4827422431A43DB
:101760000280828822F470638A881A438280DFE7CD
:10177000007B7047828822F48052828082880A43EC
:1017800082807047017370477047000010B58A0768
:1017900021F003040649130F21440F228C689A405C
:1017A00094438C608A68984002438A6010BD0000B0
:1017B00000000140024920F0070008607047000067
:1017C000505C0040F0B50E490E4D48F68F760B7810
:1017D000002148F280070BE0CCB205EB840CDCF86A
:1017E000002092B2324022433A43CCF80020491CF8
:1017F0009942F1D3034940F080004C310860F0BDBC
:10180000BB000020005C0040054A21F00101126885
:1018100092B202EBC000034A02EB400081607047C5
:10182000505C0040006000400D4A12683E2992B2B0
:1018300002EBC0000B4A02EB400209D94809C90675
:1018400001D1401E80B24FF4004141EA802005E002
:101850004808C90701D0401C80B280021060704760
:10186000505C00400C6000400A4A02EB80021068A5
:101870004BF68F7380B200EA0300CB0401D580F4ED
:101880008050890401D580F4005048F2800108435B
:1018900010607047005C0040074901EB8001086858
:1018A0004BF68F7280B2104080F4405048F28002B4
:1018B0001043086070470000005C0040054A21F0BA
:1018C0000101126892B202EBC000034A42F8101004
:1018D00070470000505C004000600040044A1268FD
:1018E00092B202EBC000034A02EB40004160704735
:1018F000505C0040006000400A4A02EB8002106821
:1019000048F6BF7380B200EA0300CB0601D580F031
:101910001000890601D580F0200048F280010843BC
:1019200010607047005C0040074901EB80010868C7
:1019300048F6BF7280B2104080F0300048F280025A
:101940001043086070470000005C0040054A02EB4D
:101950008000026848F68F1392B21A400A43026070
:1019600070470000005C00401D480021026842F4FE
:10197000A02202604FF4A063026801F1010112F499
:10198000003F01D19942F7D10168890326D5154A54
:10199000122111604168416041684160416841F431
:1019A00080614160416821F47C114160416841F4EB
:1019B000E8114160016841F08071016001688901AE
:1019C000FCD5416821F003014160416841F002010A
:1019D00041604168C1F381010229FAD170470000DA
:1019E000001002400020024070B516480068174DF4
:1019F00081B2154800EB4101896889B200EB4104CE
:101A00002868017A09290FD0217801706178417026
:101A1000A088FEF728FC296848802089FEF723FC6F
:101A200029688880A089C880286801210172C0883F
:101A300028B1FEF7AFFEBDE87040FFF7D3BBFFF75C
:101A400033FBF8E7505C00400060004008000020D5
:101A50002DE9F04134480168087810F07F0002D089
:101A6000022805D05EE0487A00F0DF00487247E0C7
:101A70004888002856D10879002853D14A792C4D3E
:101A800022F080001406294B55F8204003D5C4F3FA
:101A90000114240102E0C4F3013424031E78034638
:101AA00086423FD97CB3897A69B311060ED555F8C1
:101AB0002010C1F3011101291ED1D8B20446FEF74E
:101AC0008FFC30212046FFF717FF15E005EB80045F
:101AD0002168C1F3013101290ED14BF68F7648F20E
:101AE000800788B1D8B2FEF769FC206880B2304028
:101AF00080F44050384320600E48006840698047B9
:101B00000020BDE8F0810DE00B4890F82C1000207B
:101B1000FFF78AFE286880B2304080F44050384396
:101B20002860E9E70220ECE708000020BB00002065
:101B3000005C004010000020E400002010B5074CBD
:101B400030B1074800680068804720680A3010BD3F
:101B5000216801200882002010BD0000080000203C
:101B600010000020054A13685A8A10B10868104412
:101B700070478888801A188200207047080000206B
:101B800010B5074C30B1074800688068804720686E
:101B90000C3010BD216801200882002010BD00001B
:101BA00008000020100000201F4910B5096860B12E
:101BB0001E48002202800A7853060AD002F07F02F3
:101BC000012A16D0022A16D001E002200882002045
:101BD00010BD497A8A06027802D542F0020201E07D
:101BE00002F0FD0249060270D1B210D401F0FE01EC
:101BF0000FE00E4810BD4A7902F00F0113060C4A9F
:101C000052F8211007D5C1F3011106E0017841F027
:101C10000101017003E0C1F301310129F6D005484B
:101C2000006800698047E4E7080000200200002007
:101C3000005C0040100000200A4810B500680A4A05
:101C4000C1785278914203D882780AB982880AB161
:101C5000022010BD8172054800684068804700205E
:101C600010BD000008000020BB0000201000002074
:101C7000064810B50068417A41F0200141720448DD
:101C80000068C0698047002010BD000008000020E7
:101C90001000002070B51E4803681E48597921F0D5
:101CA000800500EB85000C06046821F0800204D555
:101CB000C4F301144FEA041C03E0C4F301344FEAF7
:101CC000043C154C2478944213D95A888AB9BCF143
:101CD000000F0ED09A7A62B109060029016848F215
:101CE000800289B207DA48F6BF73194081F010010B
:101CF00006E0022070BD4BF68F73194081F48051CD
:101D0000114301600548006880698047002070BD6C
:101D100008000020005C0040BB00002010000020F4
:101D200010B50E4C0E4A20681268C178926940794D
:101D3000904721688A7A22B118B9087908B9887859
:101D400008B1022010BD07480068C06880472068BD
:101D50004179C172C1780173002010BD08000020D4
:101D60000C000020100000200648016889B241F0F4
:101D700008010160016889B241F004010160FEF7C9
:101D8000D7BE0000405C0040134810B5C268012176
:101D9000521CC260B2F57A7F01D98170C160C268FD
:101DA0000523B2FBF3F403FB142303B941700A23A8
:101DB000B2FBF3F403FB142202B90170416811B1C4
:101DC0004168491E416005480168002902D0016848
:101DD000491E016010BD00001C00002040000020D2
:101DE000164810B5016841F470010160144801689B
:101DF00041F0010101604168124A114041600168EF
:101E0000114A11400160016821F48021016041689C
:101E100021F4FE014160C16A21F00F01C162016B32
:101E20000A4A1140016300218160FFF79DFD0349CB
:101E30004FF000608039086010BD000088ED00E0C0
:101E4000001002400CC07FF8FFFFF6FECCFC00FF44
:101E500010B5046A24F001040462D0F818C0046AC2
:101E600042EA03122CF0F30C24F00A0342EA0C02BB
:101E70000B4343F001018261016210BD30B5046A79
:101E80004FF6EF752C400462D0F818C0046A2CF4A9
:101E9000734C4CEA033343EA02220905090C4FF65E
:101EA0005F731C4041F0100121438261016230BD2B
:101EB00070B504210D07284600F03AF8012820D11A
:101EC0000421284600F024F80E4C6068A0602846E3
:101ED00000F02CF86060A168401A0B49884203D9D1
:101EE000E068206000200BE04821B0FBF1F1E068E1
:101EF000064B00F00F02102823F8121001D2401CEC
:101F0000E06070BD2C000020C04B0300A001002049
:101F1000C94389B2016170470029018802D041F0AC
:101F2000010101E021F0010101807047806B7047E1
:101F300003690022C0680B4200EA010001D000B131
:101F400001221046704770B50D460446088849883E
:101F5000AA882B8918B304282AD00828206A30D0F0
:101F60004EF6FF7630402062E06986B2206A0907AB
:101F7000120680B226F4734646EA12421B0720F48A
:101F8000204042EA134340EA114040F48050E361AC
:101F90002062E9882046BDE8704000F053B8204632
:101FA000FFF756FFE9882046BDE8704000F030B8E2
:101FB0002046FFF763FFE9882046BDE8704000F047
:101FC0002FB84FF6FF6630402062E06986B2206A83
:101FD000090680B21B0526F0F30642EA134320F4FB
:101FE0002060334340EA114040F48070E361206296
:101FF000E9882046BDE8704000F01BB8002AC2689E
:1020000001D00A4302E0C94389B20A40C260704766
:10201000826922F00C02826182690A438261704700
:10202000826922F440628261826942EA012181610F
:102030007047C2694FF6F3731A40C261C2690A431E
:10204000C2617047C2694FF2FF331A40C261C26970
:10205000090642EA1142C2617047000030B50288A9
:10206000194B1A4C98420AD0A04208D0B0F1804FC8
:1020700005D0174DA84202D0164DA84203D122F038
:1020800070054A882A43144DA84206D0134DA84231
:1020900003D022F440750A892A4302804A68C2624A
:1020A0000A88028598420AD0A04208D00C4A904281
:1020B00005D00C4A904202D00B4A904201D1897A55
:1020C00001860121416130BD002C014000340140F6
:1020D00000040040000800400010004000140040D0
:1020E0000040014000440140004801404FF0FF31F2
:1020F000416000210180018141808172704710B5EB
:102100000020FFF76FFABDE810401220FEF778BC00
:10211000044A00284FF48041104601D0FEF761BD0B
:10212000FEF761BD00100048064805490222016023
:102130000A72064A0449C0E9011208680047000013
:102140008401002008000020E40000203401002069
:1021500070B52A4E30682A4C60806088294D2988E5
:102160000840000401D5FEF783F8608829880840FC
:10217000400505D54FF6FF30306023484068804762
:10218000618828880140890402D54DF6FF713160CD
:1021900061880140C80405D54EF6FF70306000200C
:1021A000FFF720FA60882988084000050BD51748FA
:1021B000007810B1FFF7D8FD02E00220FFF712FA15
:1021C0004FF2FF703060618828880140890506D58C
:1021D0004FF6FF513160217801F1010121706188D2
:1021E00001EA0001C80507D54FF6FF603060BDE881
:1021F00070400720FFF7F6B970BD0000445C004056
:102200007800002014000020E4000020B800002026
:10221000FFF79EBF05490020086005494FF43F4085
:1022200008800249091F086000207047445C004094
:102230001400002070B500F07F050E462846FEF71A
:10224000E5FC04462846FEF7D1FC0146224630460E
:10225000FEF7B8FF204670BD70B500F07F050E4652
:1022600014462846FEF7E2FC0146A2B21446304668
:1022700000F008F821462846FFF730FB002070BD2B
:10228000FEE70000084B10B5521C520803EB410159
:1022900008D003784478801C43EA042321F8043BE7
:1022A000521EF6D110BD00000060004002E008C8D8
:1022B000121F08C1002AFAD170477047002001E0C0
:1022C00001C1121F002AFBD17047000000B500F0C9
:1022D0003DF802498968B0FBF1F000BD1C00002008
:1022E00000B58FB06846FEF7F1FF0948016841F07C
:1022F000807101600748016841F0010101600649F1
:102300000098B0FBF1F0054988600FB000BD0000F7
:10231000FCED00E0001000E040420F001C00002037
:10232000094A10B51268074B914206D9114604E0DC
:1023300033F8024B20F8024B491E0029F8D1104611
:1023400010BD0000A00100202C00002003480168FF
:1023500041F080710160024840687047FCED00E088
:10236000001000E030B5012189B04805FEF77EFF7E
:1023700001218804FEF76EFF1A4D0422062128462B
:10238000FEF71FFC042207212846FEF71AFC022153
:102390008DF8201000248DF822408DF823100320A2
:1023A0008DF821004020079007A92846FEF7C8FBBA
:1023B0008020079007A92846FEF7C2FB01940394EA
:1023C00002940494059406940748084C00906946CA
:1023D0002046FEF767FC01212046FEF752FC09B0BB
:1023E00030BD00000004004825209000005400404B
:1023F00008B5009313460A460146024800F010F85B
:1024000008BD00000054004008B5009313460A467A
:102410000146024800F06CF808BD0000005400407E
:102420002DE9F84F4FF4004983468A4616469846F0
:102430004C460A9D02E0641E601C57D0494658462F
:10244000FEF729FC0028F6D14FF40050009000233D
:10245000012251465846FEF75BFC4F4602E07F1EC4
:10246000781C43D002215846FEF715FC0028F6D010
:1024700031465846FEF749FC4E4602E0761E701C77
:1024800034D040215846FEF706FC0028F6D04FF421
:10249000105000904FF00073EAB251465846FEF7D4
:1024A00037FC11E04C4602E0641E601C1ED0042183
:1024B0005846FEF7F0FB0028F6D05846FEF722FCFF
:1024C0006D1E08F8010BADB2002DEBD14E4602E0B7
:1024D000761E701C0AD020215846FEF7DCFB00282F
:1024E000F6D020215846FEF7CAFB0120BDE8F88F40
:1024F0002DE9F84F4FF4004A83460F461646994699
:1025000054460A9D02E0641E601C64D05146584641
:10251000FEF7C1FB0028F6D14FF40050C302009033
:10252000012239465846FEF7F3FBD04605E000BFCE
:10253000A8F1010818F101004DD002215846FEF71C
:10254000AAFB0028F4D031465846FEF7DEFB56467B
:1025500002E0761E701C3ED080215846FEF79BFBA1
:102560000028F6D0002000904FF00073EAB2394600
:102570005846FEF7CDFB11E0544602E0641E601C95
:1025800029D002215846FEF786FB0028F6D099F89C
:1025900000105846FEF7B9FB6D1EADB2002DEBD111
:1025A000574602E07F1E781C15D002215846FEF7E0
:1025B00072FB0028F6D0544602E0641E601C0AD06C
:1025C00020215846FEF767FB0028F6D02021584608
:1025D000FEF755FB0120BDE8F88F00001CB5FFF7A2
:1025E00075FE0A4CE168411A2161E06020780128FB
:1025F00002D16846FEF76AFCFFF768FEE168401A00
:1026000060616069401C60611CBD000044000020E6
:1026100096B04FF4A060FEF73DFD00F091FBFFF790
:102620005FFE00F05FFA00F02BFBFEF709FCFEF7FF
:1026300051FCFEF78FFC00F0A9F800F085F8282285
:1026400005213B4800F020F9072000F00DF9044671
:10265000FF21E22000F07AF9FF21E12000F076F975
:102660002146272000F072F900F08EF9FFF75CFD9B
:10267000304F314DDFF8C480314EDFF8C890002470
:102680003878A0B33C708DF800402878032804D037
:10269000022806D001282BD037E0684600F06AF9FE
:1026A00020E014A8FEF712FC12A8FEF74DFC10A8BB
:1026B000FEF778FC02208DF800001498CDF8010098
:1026C000BDF85400ADF805001298CDF80700BDF82C
:1026D0004C00ADF80B001098CDF80D00BDF844008B
:1026E000ADF811004021684600F042FC06E00CE025
:1026F000308A800709D510A8FEF7E8FB9DF8000096
:1027000018B14021684600F033FC687800B16C7065
:1027100098F8001009B188F8004099F800100029D5
:10272000AED089F80040B08A80F40070B082A7E78C
:10273000A42F00081C000020440000201D000020E1
:10274000001000481E0000201CB50EA10522D1E992
:102750000001CDE900016946302000F0DDF80522D6
:102760006946102000F064F8002069460A5CA52A3A
:1027700002D1401C0528F9D3052801D000201CBD3A
:1027800001201CBDA5A5A5A5A500000010B500F061
:1027900025FA00F06BFBFF2000F0C4FB04494FF466
:1027A00000600880024940001039086010BD000038
:1027B0002804004830B589B0072000F055F80446D9
:1027C0000146272000F0C2F804F07000102809D05C
:1027D000202810D0402824D060280AD1022000F000
:1027E00099F81EE0002000F095F8FF21E12000F0AC
:1027F000ADF809B030BD012000F08CF8F9E7602099
:1028000000F032F8054602466946612000F010F8F3
:1028100022462946684600F009F8072000F024F80F
:102820000446C4F34204072CE9D1E2E770470000F4
:102830002DE9F0410D460B494FF4805714460F80A7
:1028400000F070FB064604E0FF2000F06BFB05F88B
:10285000010B641EF8D20348103807603046BDE80B
:10286000F08100002804004810B506494FF4805458
:102870000C8000F057FBFF2000F054FB0149103999
:102880000C6010BD2804004870B50B4620494FF479
:10289000006514460D8001461A462A2000F03CF8D7
:1028A0000121212000F052F80121222000F04EF8F1
:1028B0002146252000F04AF81021312000F046F88A
:1028C00006213D2000F042F81D20FFF7CDFF38B96A
:1028D0001C20FFF7C9FF18B97321502000F036F80B
:1028E00006213D2000F032F83F213C2000F02EF878
:1028F0000321232000F02AF80621262000F026F8E4
:102900000F21202000F022F801481038056070BD2A
:1029100028040048704700002DE9F0410D460A499F
:102920004FF4805714460F8000F0FCFA064603E08F
:1029300015F8010B00F0F6FA641EF9D202481038BF
:1029400007603046BDE8F0812804004870B50D46A8
:1029500007494FF480560E8000F0E4FA04462846FA
:1029600000F0E0FA024810380660204670BD000012
:102970002804004810B50446032020700821A01C3C
:10298000FFF7CEFC607010BD70B501218AB008461B
:10299000FEF76CFC01214804FEF75CFC022003906A
:1029A0008DF8100003208DF8110000248DF81240DE
:1029B00001254FF090468DF8135003A93046FEF7DD
:1029C000BFF8012211463046FEF7FBF81C208DF8B7
:1029D00014008DF815508DF8175005A8FEF728FB48
:1029E00006A8FFF783FBAE0706A93046FFF736FBC4
:1029F0000420ADF80000ADF80450ADF80240ADF889
:102A00000640ADF8084069463046FFF79CFA0122BF
:102A100004213046FFF7F2FA01213046FFF77CFA35
:102A20000AB070BD2DE9F041012186B00846FEF7DD
:102A300035FC01258DF804500024DFF8A480082718
:102A40008DF80640032600978DF8056069464046DC
:102A5000FEF776F88DF804408DF806408DF8056095
:102A600000968DF8074069464046FEF769F8002158
:102A70000420FEF78BFE01210420FEF787FE8DF86F
:102A80000C400C208DF80D0002948DF80E5002A819
:102A9000FDF7DAFF8DF80C408DF80D7002958DF87A
:102AA0000E5002A8FDF7D0FF06208DF810000F246D
:102AB0008DF811408DF812408DF8135004A8FEF7E0
:102AC000B7FA07208DF810008DF811408DF81240EC
:102AD0008DF8135004A8FEF7ABFA06B0BDE8F081FC
:102AE000001000481CB501214805FEF7B3FB4FF468
:102AF0007F40009001208DF8040000218DF8061021
:102B00008DF8070003208DF8050069460148FEF79F
:102B100017F81CBD0010004830B5012185B00846EB
:102B2000FEF7BCFB3420002403908DF810408DF894
:102B3000124003208DF811008DF8134003A9264898
:102B4000FDF7FEFF02210420FEF720FE04210846C7
:102B5000FEF71CFE05210420FEF718FE022001905E
:102B60008DF808400C208DF8090001258DF80A50D9
:102B700001A8FDF769FF0420019001A8FDF764FF9B
:102B80000520019001A8FDF75FFF08208DF80000E7
:102B90000F248DF801408DF802408DF803506846EF
:102BA000FEF746FA0A208DF800008DF801408DF8F6
:102BB00002408DF803506846FEF73AFA17208DF868
:102BC00000008DF801408DF802408DF803506846F2
:102BD000FEF72EFA05B030BD00100048F0B5012117
:102BE00085B00846FEF75AFB01218804FEF732FB48
:102BF00001254FF400608DF80450002400908DF8FA
:102C0000064003268DF8056069461B48FDF798FFCE
:102C100028031A4F009069463846FDF791FF8DF85A
:102C20000440A8028DF8064000908DF805608DF8EC
:102C3000074069463846FDF783FF0A210120FEF769
:102C4000A5FD0A2002908DF80C400C208DF80D0097
:102C50008DF80E5002A8FDF7F7FE28208DF8100021
:102C60000F208DF811008DF812008DF8135004A874
:102C7000FEF7DEF905B0F0BD001000480004004882
:102C800070B5012186B00807FEF7F0FA0121084669
:102C9000FEF704FB01214805FEF7DCFA0121480498
:102CA000FEF7D8FA4FF4C050019003208DF80900C8
:102CB00002268DF8086000248DF80A404FF09045F8
:102CC0008DF80B4001A92846FDF73AFF0E220B2193
:102CD0002846FDF776FF0E220C212846FDF771FFEE
:102CE0001220FDF78DFE122003908DF81040082071
:102CF0008DF8110001258DF8125003A8FDF7A4FEF0
:102D00000020FEF755FC0121C805FEF7AFFA14209C
:102D10008DF800008DF801608DF802408DF80350A9
:102D20006846FEF785F92A208DF800008DF80150DD
:102D30008DF803506846FEF77BF906B070BD0000C1
:102D400000B58FB06846FEF7C1FA01984FF47A716A
:102D5000B0FBF1F0B0F1807F0CD220F07F414FF05A
:102D6000E020491E4161044AF02111700021816177
:102D7000072101610FB000BD23ED00E070B5012116
:102D80000D0388B02846FEF789FA01214FF4081098
:102D9000FEF760FA05224FF0904611463046FDF7E7
:102DA00010FF052206213046FDF70BFF0522072103
:102DB0003046FDF706FF02208DF8180000248DF83C
:102DC0001A408DF81B4003208DF81900E020059073
:102DD00005A93046FDF7B4FE154E3046FEF75AFC05
:102DE0004FF4E060ADF80400ADF80840E810ADF82D
:102DF0000A001020ADF80C000720ADF81000ADF867
:102E000000404FF48270ADF80200ADF80640ADF816
:102E10000E4069463046FEF76EFC29463046FEF706
:102E2000A9FC01213046FEF72BFC08B070BD000064
:102E30000030014070B50C4D044602212846FEF7D3
:102E400053FC0028F9D021462C462846FEF79AFC70
:102E500001212046FEF748FC0028F9D02046BDE8B5
:102E60007040FEF785BC00000030014030B5012104
:102E700087B08803FEF7FAF901218804FEF7EAF922
:102E8000264D05220D212846FDF79BFE05220E2129
:102E90002846FDF796FE05220F212846FDF791FEF4
:102EA00002208DF8180000248DF81A408DF81B4080
:102EB00003208DF819004FF46040059005A92846BD
:102EC000FDF73EFE164D2846FEF7E4FB4FF4E060AA
:102ED000ADF80400ADF808406815ADF80A00102000
:102EE000ADF80C000720ADF81000ADF800404FF42D
:102EF0008270ADF80200ADF80640ADF80E406946AC
:102F00002846FEF7F8FBA9142846FEF733FC0121FA
:102F10002846FEF7B5FB07B030BD000000040048AE
:102F20000038004070B50C4D044602212846FEF7DB
:102F3000DBFB0028F9D021462C462846FEF722FC70
:102F400001212046FEF7D0FB0028F9D02046BDE83D
:102F50007040FEF70DBC00000038004001780329E6
:102F600002D10249407808707047000044000020F8
:102F700010B5402900D340210A4601460748FDF715
:102F80001FF9402205498120FFF766F90120FEF76D
:102F9000CBFC03490020087010BD00000002002097
:102FA0007600002012345678F01201000200000072
:102FB00040500250020002010203010902290001EF
:102FC0000100E032090400000203000000092100B2
:102FD00002000122170007058103400001070501D7
:102FE00003400001058C0901A1010901150025FF1D
:102FF00095407508810209029102C0040309041476
:10300000036200790020006C007800790070007085
:1030100000630020034D0069006E0069002D00511F
:103020000075006100640043006F0070007400656B
:1030300000720000543000080000002084010000ED
:1030400008020008FC30000884010020BC040000D5
:10305000BC2200080124021B483264021701141A22
:10306000036C127812791A70021263B2204932137B
:1030700035090C14082D10040A19411C59426A0222
:103080007813A92F3308121ABB0832291AE4083220
:10309000171ACD083209130D061C0819050C19085A
:1030A0001A0B041325041B08F9041AED041A8D04E5
:1030B0001A81041ACD044132401AFB3832041AFF37
:1030C0000832141313302A08BE225C33201A2984D4
:1030D0001AC9500916A01AE51C39A42C02030404CD
:1030E0002B060787120112021204197F11120A120D
:0C30F0000C12101A206C3A80C90000007D
:040000050800018965
:00000001FF
